{
  "_format": "hh-sol-artifact-1",
  "contractName": "HFEvent",
  "sourceName": "contracts/core/HFEvent.sol",
  "abi": [
    {
      "anonymous": false,
      "inputs": [
        {
          "indexed": true,
          "internalType": "address",
          "name": "investor",
          "type": "address"
        },
        {
          "indexed": true,
          "internalType": "uint256",
          "name": "ticketId",
          "type": "uint256"
        },
        {
          "indexed": false,
          "internalType": "string",
          "name": "bidProcessType",
          "type": "string"
        },
        {
          "indexed": false,
          "internalType": "int256",
          "name": "askingAmount",
          "type": "int256"
        },
        {
          "indexed": false,
          "internalType": "string",
          "name": "ticketName",
          "type": "string"
        },
        {
          "indexed": false,
          "internalType": "enum HFEnum.TicketStatus",
          "name": "ticketStatus",
          "type": "uint8"
        },
        {
          "indexed": false,
          "internalType": "uint256",
          "name": "eventTimestamp",
          "type": "uint256"
        }
      ],
      "name": "BiddingAdded",
      "type": "event"
    },
    {
      "anonymous": false,
      "inputs": [
        {
          "indexed": true,
          "internalType": "address",
          "name": "investor",
          "type": "address"
        },
        {
          "indexed": true,
          "internalType": "uint256",
          "name": "ticketId",
          "type": "uint256"
        },
        {
          "indexed": false,
          "internalType": "string",
          "name": "bidProcessType",
          "type": "string"
        }
      ],
      "name": "BiddingRemoved",
      "type": "event"
    },
    {
      "anonymous": false,
      "inputs": [
        {
          "indexed": true,
          "internalType": "address",
          "name": "investor",
          "type": "address"
        },
        {
          "indexed": true,
          "internalType": "uint256",
          "name": "ticketId",
          "type": "uint256"
        },
        {
          "indexed": false,
          "internalType": "string",
          "name": "bidProcessType",
          "type": "string"
        },
        {
          "indexed": false,
          "internalType": "int256",
          "name": "askingAmount",
          "type": "int256"
        },
        {
          "indexed": false,
          "internalType": "int256",
          "name": "claimAmount",
          "type": "int256"
        },
        {
          "indexed": false,
          "internalType": "int256",
          "name": "premiumAmount",
          "type": "int256"
        },
        {
          "indexed": false,
          "internalType": "string",
          "name": "ticketName",
          "type": "string"
        },
        {
          "indexed": false,
          "internalType": "enum HFEnum.TicketStatus",
          "name": "ticketStatus",
          "type": "uint8"
        },
        {
          "indexed": false,
          "internalType": "uint256",
          "name": "eventTimestamp",
          "type": "uint256"
        }
      ],
      "name": "BiddingSelected",
      "type": "event"
    },
    {
      "anonymous": false,
      "inputs": [
        {
          "indexed": true,
          "internalType": "address",
          "name": "investor",
          "type": "address"
        },
        {
          "indexed": true,
          "internalType": "uint256",
          "name": "ticketId",
          "type": "uint256"
        },
        {
          "indexed": false,
          "internalType": "string",
          "name": "bidProcessType",
          "type": "string"
        },
        {
          "indexed": false,
          "internalType": "int256",
          "name": "askingAmount",
          "type": "int256"
        },
        {
          "indexed": false,
          "internalType": "string",
          "name": "ticketName",
          "type": "string"
        },
        {
          "indexed": false,
          "internalType": "enum HFEnum.TicketStatus",
          "name": "ticketStatus",
          "type": "uint8"
        },
        {
          "indexed": false,
          "internalType": "uint256",
          "name": "eventTimestamp",
          "type": "uint256"
        }
      ],
      "name": "BiddingUpdated",
      "type": "event"
    },
    {
      "anonymous": false,
      "inputs": [
        {
          "indexed": true,
          "internalType": "address",
          "name": "donor",
          "type": "address"
        },
        {
          "indexed": true,
          "internalType": "uint256",
          "name": "ticketId",
          "type": "uint256"
        },
        {
          "indexed": false,
          "internalType": "int256",
          "name": "amount",
          "type": "int256"
        },
        {
          "indexed": false,
          "internalType": "string",
          "name": "option",
          "type": "string"
        },
        {
          "indexed": false,
          "internalType": "bool",
          "name": "refunded",
          "type": "bool"
        },
        {
          "indexed": false,
          "internalType": "uint256",
          "name": "eventTimestamp",
          "type": "uint256"
        }
      ],
      "name": "DonationCreated",
      "type": "event"
    },
    {
      "anonymous": false,
      "inputs": [
        {
          "indexed": true,
          "internalType": "address",
          "name": "donor",
          "type": "address"
        },
        {
          "indexed": true,
          "internalType": "uint256",
          "name": "ticketId",
          "type": "uint256"
        },
        {
          "indexed": false,
          "internalType": "int256",
          "name": "amount",
          "type": "int256"
        },
        {
          "indexed": false,
          "internalType": "string",
          "name": "option",
          "type": "string"
        },
        {
          "indexed": false,
          "internalType": "bool",
          "name": "refunded",
          "type": "bool"
        },
        {
          "indexed": false,
          "internalType": "uint256",
          "name": "eventTimestamp",
          "type": "uint256"
        }
      ],
      "name": "DonationRefunded",
      "type": "event"
    },
    {
      "anonymous": false,
      "inputs": [
        {
          "indexed": true,
          "internalType": "address",
          "name": "donor",
          "type": "address"
        },
        {
          "indexed": true,
          "internalType": "uint256",
          "name": "ticketId",
          "type": "uint256"
        },
        {
          "indexed": false,
          "internalType": "int256",
          "name": "amount",
          "type": "int256"
        },
        {
          "indexed": false,
          "internalType": "string",
          "name": "option",
          "type": "string"
        },
        {
          "indexed": false,
          "internalType": "bool",
          "name": "refunded",
          "type": "bool"
        },
        {
          "indexed": false,
          "internalType": "uint256",
          "name": "eventTimestamp",
          "type": "uint256"
        }
      ],
      "name": "DonationUpdated",
      "type": "event"
    },
    {
      "anonymous": false,
      "inputs": [
        {
          "indexed": true,
          "internalType": "address",
          "name": "donee",
          "type": "address"
        },
        {
          "indexed": true,
          "internalType": "uint256",
          "name": "ticketId",
          "type": "uint256"
        },
        {
          "indexed": false,
          "internalType": "int256",
          "name": "sum",
          "type": "int256"
        },
        {
          "indexed": false,
          "internalType": "uint256",
          "name": "eventTimestamp",
          "type": "uint256"
        }
      ],
      "name": "DonationsReceived",
      "type": "event"
    },
    {
      "anonymous": false,
      "inputs": [
        {
          "indexed": true,
          "internalType": "address",
          "name": "user",
          "type": "address"
        },
        {
          "indexed": true,
          "internalType": "uint256",
          "name": "ticketId",
          "type": "uint256"
        },
        {
          "indexed": true,
          "internalType": "uint256",
          "name": "claimId",
          "type": "uint256"
        },
        {
          "indexed": false,
          "internalType": "uint8",
          "name": "round",
          "type": "uint8"
        },
        {
          "indexed": false,
          "internalType": "enum HFEnum.ClaimStatus",
          "name": "claimStatus",
          "type": "uint8"
        },
        {
          "indexed": false,
          "internalType": "bool",
          "name": "isApproved",
          "type": "bool"
        },
        {
          "indexed": false,
          "internalType": "uint256",
          "name": "oracleData",
          "type": "uint256"
        },
        {
          "indexed": false,
          "internalType": "uint8",
          "name": "juryAccept",
          "type": "uint8"
        },
        {
          "indexed": false,
          "internalType": "uint8",
          "name": "juryReject",
          "type": "uint8"
        },
        {
          "indexed": false,
          "internalType": "uint256",
          "name": "lastDecisionDate",
          "type": "uint256"
        },
        {
          "indexed": false,
          "internalType": "uint256",
          "name": "roundStartDate",
          "type": "uint256"
        },
        {
          "components": [
            {
              "internalType": "string",
              "name": "claimType",
              "type": "string"
            },
            {
              "internalType": "string[]",
              "name": "constraints",
              "type": "string[]"
            },
            {
              "internalType": "string[]",
              "name": "parameters",
              "type": "string[]"
            }
          ],
          "indexed": false,
          "internalType": "struct HFEntity.ClaimCondition",
          "name": "condition",
          "type": "tuple"
        }
      ],
      "name": "HFClaimCreated",
      "type": "event"
    },
    {
      "anonymous": false,
      "inputs": [
        {
          "indexed": true,
          "internalType": "address",
          "name": "user",
          "type": "address"
        },
        {
          "indexed": true,
          "internalType": "uint256",
          "name": "ticketId",
          "type": "uint256"
        },
        {
          "indexed": true,
          "internalType": "uint256",
          "name": "claimId",
          "type": "uint256"
        },
        {
          "indexed": false,
          "internalType": "uint8",
          "name": "round",
          "type": "uint8"
        },
        {
          "indexed": false,
          "internalType": "enum HFEnum.ClaimStatus",
          "name": "claimStatus",
          "type": "uint8"
        },
        {
          "indexed": false,
          "internalType": "bool",
          "name": "isApproved",
          "type": "bool"
        },
        {
          "indexed": false,
          "internalType": "uint256",
          "name": "oracleData",
          "type": "uint256"
        },
        {
          "indexed": false,
          "internalType": "uint8",
          "name": "juryAccept",
          "type": "uint8"
        },
        {
          "indexed": false,
          "internalType": "uint8",
          "name": "juryReject",
          "type": "uint8"
        },
        {
          "indexed": false,
          "internalType": "uint256",
          "name": "lastDecisionDate",
          "type": "uint256"
        },
        {
          "indexed": false,
          "internalType": "uint256",
          "name": "roundStartDate",
          "type": "uint256"
        }
      ],
      "name": "HFClaimUpdated",
      "type": "event"
    },
    {
      "anonymous": false,
      "inputs": [
        {
          "indexed": true,
          "internalType": "address",
          "name": "user",
          "type": "address"
        },
        {
          "indexed": false,
          "internalType": "uint256",
          "name": "amount",
          "type": "uint256"
        }
      ],
      "name": "HFCoinBurned",
      "type": "event"
    },
    {
      "anonymous": false,
      "inputs": [
        {
          "indexed": true,
          "internalType": "address",
          "name": "user",
          "type": "address"
        },
        {
          "indexed": false,
          "internalType": "uint256",
          "name": "amount",
          "type": "uint256"
        }
      ],
      "name": "HFCoinMinted",
      "type": "event"
    },
    {
      "anonymous": false,
      "inputs": [
        {
          "indexed": true,
          "internalType": "address",
          "name": "sender",
          "type": "address"
        },
        {
          "indexed": true,
          "internalType": "address",
          "name": "receiver",
          "type": "address"
        },
        {
          "indexed": false,
          "internalType": "uint256",
          "name": "amount",
          "type": "uint256"
        }
      ],
      "name": "HFCoinTransferredFrom",
      "type": "event"
    },
    {
      "anonymous": false,
      "inputs": [
        {
          "indexed": true,
          "internalType": "address",
          "name": "investor",
          "type": "address"
        },
        {
          "indexed": true,
          "internalType": "uint256",
          "name": "ticketId",
          "type": "uint256"
        },
        {
          "indexed": false,
          "internalType": "int256",
          "name": "reimburseAmount",
          "type": "int256"
        },
        {
          "indexed": false,
          "internalType": "int256",
          "name": "totalInvestments",
          "type": "int256"
        },
        {
          "indexed": false,
          "internalType": "string",
          "name": "ticketName",
          "type": "string"
        },
        {
          "indexed": false,
          "internalType": "uint256",
          "name": "eventTimestamp",
          "type": "uint256"
        }
      ],
      "name": "InvestReimbursed",
      "type": "event"
    },
    {
      "anonymous": false,
      "inputs": [
        {
          "indexed": true,
          "internalType": "address",
          "name": "investor",
          "type": "address"
        },
        {
          "indexed": true,
          "internalType": "uint256",
          "name": "ticketId",
          "type": "uint256"
        },
        {
          "indexed": false,
          "internalType": "int256",
          "name": "investAmount",
          "type": "int256"
        },
        {
          "indexed": false,
          "internalType": "int256",
          "name": "claimAmount",
          "type": "int256"
        },
        {
          "indexed": false,
          "internalType": "int256",
          "name": "premiumAmount",
          "type": "int256"
        },
        {
          "indexed": false,
          "internalType": "int256",
          "name": "earning",
          "type": "int256"
        },
        {
          "indexed": false,
          "internalType": "string",
          "name": "ticketName",
          "type": "string"
        },
        {
          "indexed": false,
          "internalType": "enum HFEnum.TicketStatus",
          "name": "ticketStatus",
          "type": "uint8"
        }
      ],
      "name": "InvestorEarned",
      "type": "event"
    },
    {
      "anonymous": false,
      "inputs": [
        {
          "indexed": true,
          "internalType": "address",
          "name": "buyer",
          "type": "address"
        },
        {
          "indexed": true,
          "internalType": "uint256",
          "name": "ticketId",
          "type": "uint256"
        },
        {
          "indexed": false,
          "internalType": "int256",
          "name": "totalInvestments",
          "type": "int256"
        },
        {
          "indexed": false,
          "internalType": "string",
          "name": "ticketName",
          "type": "string"
        }
      ],
      "name": "InvestsClaimed",
      "type": "event"
    },
    {
      "anonymous": false,
      "inputs": [
        {
          "indexed": true,
          "internalType": "uint256",
          "name": "ticketId",
          "type": "uint256"
        },
        {
          "indexed": true,
          "internalType": "uint256",
          "name": "tokenId",
          "type": "uint256"
        }
      ],
      "name": "NFTAdded",
      "type": "event"
    },
    {
      "anonymous": false,
      "inputs": [
        {
          "indexed": true,
          "internalType": "uint256",
          "name": "tokenId",
          "type": "uint256"
        }
      ],
      "name": "NFTBurned",
      "type": "event"
    },
    {
      "anonymous": false,
      "inputs": [
        {
          "indexed": true,
          "internalType": "uint256",
          "name": "tokenId",
          "type": "uint256"
        },
        {
          "indexed": true,
          "internalType": "address",
          "name": "tokenContract",
          "type": "address"
        },
        {
          "indexed": false,
          "internalType": "enum HFEnum.NFTType",
          "name": "tokenType",
          "type": "uint8"
        }
      ],
      "name": "NFTCreated",
      "type": "event"
    },
    {
      "anonymous": false,
      "inputs": [
        {
          "indexed": false,
          "internalType": "address",
          "name": "user",
          "type": "address"
        },
        {
          "indexed": false,
          "internalType": "uint256",
          "name": "tokenId",
          "type": "uint256"
        },
        {
          "indexed": false,
          "internalType": "string",
          "name": "nftURI",
          "type": "string"
        }
      ],
      "name": "NFTMinted",
      "type": "event"
    },
    {
      "anonymous": false,
      "inputs": [
        {
          "indexed": true,
          "internalType": "address",
          "name": "from",
          "type": "address"
        },
        {
          "indexed": true,
          "internalType": "address",
          "name": "to",
          "type": "address"
        },
        {
          "indexed": true,
          "internalType": "uint256",
          "name": "tokenId",
          "type": "uint256"
        }
      ],
      "name": "NFTTransferred",
      "type": "event"
    },
    {
      "anonymous": false,
      "inputs": [
        {
          "indexed": true,
          "internalType": "address",
          "name": "buyer",
          "type": "address"
        },
        {
          "indexed": true,
          "internalType": "uint256",
          "name": "ticketId",
          "type": "uint256"
        },
        {
          "indexed": false,
          "internalType": "int256",
          "name": "askingClaimAmount",
          "type": "int256"
        },
        {
          "indexed": false,
          "internalType": "int256",
          "name": "askingPremiumAmount",
          "type": "int256"
        },
        {
          "indexed": false,
          "internalType": "string",
          "name": "bidProcessType",
          "type": "string"
        },
        {
          "indexed": false,
          "internalType": "string",
          "name": "ticketName",
          "type": "string"
        },
        {
          "indexed": false,
          "internalType": "bool",
          "name": "reimbursedPremium",
          "type": "bool"
        }
      ],
      "name": "PremiumCreated",
      "type": "event"
    },
    {
      "anonymous": false,
      "inputs": [
        {
          "indexed": true,
          "internalType": "address",
          "name": "buyer",
          "type": "address"
        },
        {
          "indexed": true,
          "internalType": "uint256",
          "name": "ticketId",
          "type": "uint256"
        },
        {
          "indexed": false,
          "internalType": "int256",
          "name": "reimburseAmount",
          "type": "int256"
        },
        {
          "indexed": false,
          "internalType": "int256",
          "name": "totalPremium",
          "type": "int256"
        },
        {
          "indexed": false,
          "internalType": "string",
          "name": "ticketName",
          "type": "string"
        }
      ],
      "name": "PremiumReimbursed",
      "type": "event"
    },
    {
      "anonymous": false,
      "inputs": [
        {
          "indexed": true,
          "internalType": "address",
          "name": "user",
          "type": "address"
        },
        {
          "indexed": true,
          "internalType": "uint256",
          "name": "ticketId",
          "type": "uint256"
        },
        {
          "indexed": false,
          "internalType": "string",
          "name": "bidProcessType",
          "type": "string"
        },
        {
          "indexed": false,
          "internalType": "int256",
          "name": "claimAmount",
          "type": "int256"
        },
        {
          "indexed": false,
          "internalType": "int256",
          "name": "premiumAmount",
          "type": "int256"
        },
        {
          "indexed": false,
          "internalType": "int256",
          "name": "authorizedAmount",
          "type": "int256"
        },
        {
          "indexed": false,
          "internalType": "int64",
          "name": "marginRatio",
          "type": "int64"
        },
        {
          "indexed": false,
          "internalType": "string",
          "name": "ticketName",
          "type": "string"
        },
        {
          "indexed": false,
          "internalType": "enum HFEnum.TicketStatus",
          "name": "ticketStatus",
          "type": "uint8"
        },
        {
          "components": [
            {
              "internalType": "uint256",
              "name": "closingDate",
              "type": "uint256"
            },
            {
              "internalType": "uint256",
              "name": "startDate",
              "type": "uint256"
            },
            {
              "internalType": "uint256",
              "name": "endDate",
              "type": "uint256"
            }
          ],
          "indexed": false,
          "internalType": "struct HFEntity.TicketDate",
          "name": "dates",
          "type": "tuple"
        }
      ],
      "name": "TicketCreated",
      "type": "event"
    },
    {
      "anonymous": false,
      "inputs": [
        {
          "indexed": true,
          "internalType": "address",
          "name": "user",
          "type": "address"
        },
        {
          "indexed": true,
          "internalType": "uint256",
          "name": "ticketId",
          "type": "uint256"
        },
        {
          "indexed": false,
          "internalType": "string",
          "name": "bidProcessType",
          "type": "string"
        },
        {
          "indexed": false,
          "internalType": "int256",
          "name": "claimAmount",
          "type": "int256"
        },
        {
          "indexed": false,
          "internalType": "int256",
          "name": "premiumAmount",
          "type": "int256"
        },
        {
          "indexed": false,
          "internalType": "int256",
          "name": "authorizedAmount",
          "type": "int256"
        },
        {
          "indexed": false,
          "internalType": "int64",
          "name": "marginRatio",
          "type": "int64"
        },
        {
          "indexed": false,
          "internalType": "string",
          "name": "ticketName",
          "type": "string"
        },
        {
          "indexed": false,
          "internalType": "enum HFEnum.TicketStatus",
          "name": "previousStatus",
          "type": "uint8"
        },
        {
          "indexed": false,
          "internalType": "enum HFEnum.TicketStatus",
          "name": "ticketStatus",
          "type": "uint8"
        },
        {
          "components": [
            {
              "internalType": "uint256",
              "name": "closingDate",
              "type": "uint256"
            },
            {
              "internalType": "uint256",
              "name": "startDate",
              "type": "uint256"
            },
            {
              "internalType": "uint256",
              "name": "endDate",
              "type": "uint256"
            }
          ],
          "indexed": false,
          "internalType": "struct HFEntity.TicketDate",
          "name": "dates",
          "type": "tuple"
        },
        {
          "components": [
            {
              "internalType": "uint256",
              "name": "ticketId",
              "type": "uint256"
            },
            {
              "internalType": "address",
              "name": "investorAddress",
              "type": "address"
            },
            {
              "internalType": "int256",
              "name": "askingAmount",
              "type": "int256"
            },
            {
              "internalType": "int256",
              "name": "earning",
              "type": "int256"
            },
            {
              "internalType": "string",
              "name": "bidProcessType",
              "type": "string"
            },
            {
              "internalType": "string",
              "name": "ticketName",
              "type": "string"
            },
            {
              "internalType": "bool",
              "name": "tookPremium",
              "type": "bool"
            },
            {
              "internalType": "bool",
              "name": "reimbursedInvest",
              "type": "bool"
            },
            {
              "internalType": "bool",
              "name": "removed",
              "type": "bool"
            },
            {
              "internalType": "int256",
              "name": "expiredInvestAmount",
              "type": "int256"
            },
            {
              "internalType": "uint256",
              "name": "askingExpireDate",
              "type": "uint256"
            },
            {
              "internalType": "uint256",
              "name": "investDate",
              "type": "uint256"
            }
          ],
          "indexed": false,
          "internalType": "struct HFEntity.Investment",
          "name": "selectedBidding",
          "type": "tuple"
        }
      ],
      "name": "TicketStatusUpdate",
      "type": "event"
    },
    {
      "inputs": [
        {
          "internalType": "address",
          "name": "investor",
          "type": "address"
        },
        {
          "internalType": "uint256",
          "name": "ticketId",
          "type": "uint256"
        },
        {
          "internalType": "string",
          "name": "bidProcessType",
          "type": "string"
        },
        {
          "internalType": "int256",
          "name": "askingAmount",
          "type": "int256"
        },
        {
          "internalType": "string",
          "name": "ticketName",
          "type": "string"
        },
        {
          "internalType": "enum HFEnum.TicketStatus",
          "name": "ticketStatus",
          "type": "uint8"
        }
      ],
      "name": "EmitBiddingAdded",
      "outputs": [],
      "stateMutability": "nonpayable",
      "type": "function"
    },
    {
      "inputs": [
        {
          "internalType": "address",
          "name": "investor",
          "type": "address"
        },
        {
          "internalType": "uint256",
          "name": "ticketId",
          "type": "uint256"
        },
        {
          "internalType": "string",
          "name": "bidProcessType",
          "type": "string"
        }
      ],
      "name": "EmitBiddingRemoved",
      "outputs": [],
      "stateMutability": "nonpayable",
      "type": "function"
    },
    {
      "inputs": [
        {
          "internalType": "address",
          "name": "investor",
          "type": "address"
        },
        {
          "internalType": "uint256",
          "name": "ticketId",
          "type": "uint256"
        },
        {
          "internalType": "string",
          "name": "bidProcessType",
          "type": "string"
        },
        {
          "internalType": "int256",
          "name": "askingAmount",
          "type": "int256"
        },
        {
          "internalType": "int256",
          "name": "claimAmount",
          "type": "int256"
        },
        {
          "internalType": "int256",
          "name": "premiumAmount",
          "type": "int256"
        },
        {
          "internalType": "string",
          "name": "ticketName",
          "type": "string"
        },
        {
          "internalType": "enum HFEnum.TicketStatus",
          "name": "ticketStatus",
          "type": "uint8"
        }
      ],
      "name": "EmitBiddingSelected",
      "outputs": [],
      "stateMutability": "nonpayable",
      "type": "function"
    },
    {
      "inputs": [
        {
          "internalType": "address",
          "name": "investor",
          "type": "address"
        },
        {
          "internalType": "uint256",
          "name": "ticketId",
          "type": "uint256"
        },
        {
          "internalType": "string",
          "name": "bidProcessType",
          "type": "string"
        },
        {
          "internalType": "int256",
          "name": "askingAmount",
          "type": "int256"
        },
        {
          "internalType": "string",
          "name": "ticketName",
          "type": "string"
        },
        {
          "internalType": "enum HFEnum.TicketStatus",
          "name": "ticketStatus",
          "type": "uint8"
        }
      ],
      "name": "EmitBiddingUpdated",
      "outputs": [],
      "stateMutability": "nonpayable",
      "type": "function"
    },
    {
      "inputs": [
        {
          "internalType": "address",
          "name": "donor",
          "type": "address"
        },
        {
          "internalType": "uint256",
          "name": "ticketId",
          "type": "uint256"
        },
        {
          "components": [
            {
              "internalType": "uint256",
              "name": "ticketId",
              "type": "uint256"
            },
            {
              "internalType": "address",
              "name": "donorAddress",
              "type": "address"
            },
            {
              "internalType": "int256",
              "name": "amount",
              "type": "int256"
            },
            {
              "internalType": "string",
              "name": "option",
              "type": "string"
            },
            {
              "internalType": "bool",
              "name": "refunded",
              "type": "bool"
            }
          ],
          "internalType": "struct HFEntity.Donation",
          "name": "donate",
          "type": "tuple"
        }
      ],
      "name": "EmitDonationCreated",
      "outputs": [],
      "stateMutability": "nonpayable",
      "type": "function"
    },
    {
      "inputs": [
        {
          "internalType": "address",
          "name": "donor",
          "type": "address"
        },
        {
          "internalType": "uint256",
          "name": "ticketId",
          "type": "uint256"
        },
        {
          "internalType": "int256",
          "name": "amount",
          "type": "int256"
        },
        {
          "internalType": "string",
          "name": "option",
          "type": "string"
        },
        {
          "internalType": "bool",
          "name": "refunded",
          "type": "bool"
        }
      ],
      "name": "EmitDonationRefunded",
      "outputs": [],
      "stateMutability": "nonpayable",
      "type": "function"
    },
    {
      "inputs": [
        {
          "internalType": "address",
          "name": "donor",
          "type": "address"
        },
        {
          "internalType": "uint256",
          "name": "ticketId",
          "type": "uint256"
        },
        {
          "internalType": "int256",
          "name": "amount",
          "type": "int256"
        },
        {
          "internalType": "string",
          "name": "option",
          "type": "string"
        },
        {
          "internalType": "bool",
          "name": "refunded",
          "type": "bool"
        }
      ],
      "name": "EmitDonationUpdated",
      "outputs": [],
      "stateMutability": "nonpayable",
      "type": "function"
    },
    {
      "inputs": [
        {
          "internalType": "address",
          "name": "donee",
          "type": "address"
        },
        {
          "internalType": "uint256",
          "name": "ticketId",
          "type": "uint256"
        },
        {
          "internalType": "int256",
          "name": "sum",
          "type": "int256"
        }
      ],
      "name": "EmitDonationsReceived",
      "outputs": [],
      "stateMutability": "nonpayable",
      "type": "function"
    },
    {
      "inputs": [
        {
          "internalType": "address",
          "name": "user",
          "type": "address"
        },
        {
          "internalType": "uint256",
          "name": "ticketId",
          "type": "uint256"
        },
        {
          "components": [
            {
              "internalType": "uint256",
              "name": "claimId",
              "type": "uint256"
            },
            {
              "internalType": "uint8",
              "name": "round",
              "type": "uint8"
            },
            {
              "internalType": "enum HFEnum.ClaimStatus",
              "name": "claimStatus",
              "type": "uint8"
            },
            {
              "components": [
                {
                  "internalType": "string",
                  "name": "claimType",
                  "type": "string"
                },
                {
                  "internalType": "string[]",
                  "name": "constraints",
                  "type": "string[]"
                },
                {
                  "internalType": "string[]",
                  "name": "parameters",
                  "type": "string[]"
                }
              ],
              "internalType": "struct HFEntity.ClaimCondition",
              "name": "condition",
              "type": "tuple"
            },
            {
              "internalType": "bool",
              "name": "isApproved",
              "type": "bool"
            },
            {
              "internalType": "uint256",
              "name": "lastDecisionDate",
              "type": "uint256"
            },
            {
              "internalType": "uint256",
              "name": "oracleData",
              "type": "uint256"
            },
            {
              "internalType": "uint256",
              "name": "roundStartDate",
              "type": "uint256"
            }
          ],
          "internalType": "struct HFEntity.Claim",
          "name": "claim",
          "type": "tuple"
        },
        {
          "internalType": "uint256",
          "name": "oracleData",
          "type": "uint256"
        },
        {
          "internalType": "uint8",
          "name": "juryAccept",
          "type": "uint8"
        },
        {
          "internalType": "uint8",
          "name": "juryReject",
          "type": "uint8"
        }
      ],
      "name": "EmitHFClaimCreated",
      "outputs": [],
      "stateMutability": "nonpayable",
      "type": "function"
    },
    {
      "inputs": [
        {
          "internalType": "address",
          "name": "user",
          "type": "address"
        },
        {
          "internalType": "uint256",
          "name": "ticketId",
          "type": "uint256"
        },
        {
          "components": [
            {
              "internalType": "uint256",
              "name": "claimId",
              "type": "uint256"
            },
            {
              "internalType": "uint8",
              "name": "round",
              "type": "uint8"
            },
            {
              "internalType": "enum HFEnum.ClaimStatus",
              "name": "claimStatus",
              "type": "uint8"
            },
            {
              "components": [
                {
                  "internalType": "string",
                  "name": "claimType",
                  "type": "string"
                },
                {
                  "internalType": "string[]",
                  "name": "constraints",
                  "type": "string[]"
                },
                {
                  "internalType": "string[]",
                  "name": "parameters",
                  "type": "string[]"
                }
              ],
              "internalType": "struct HFEntity.ClaimCondition",
              "name": "condition",
              "type": "tuple"
            },
            {
              "internalType": "bool",
              "name": "isApproved",
              "type": "bool"
            },
            {
              "internalType": "uint256",
              "name": "lastDecisionDate",
              "type": "uint256"
            },
            {
              "internalType": "uint256",
              "name": "oracleData",
              "type": "uint256"
            },
            {
              "internalType": "uint256",
              "name": "roundStartDate",
              "type": "uint256"
            }
          ],
          "internalType": "struct HFEntity.Claim",
          "name": "claim",
          "type": "tuple"
        },
        {
          "internalType": "uint256",
          "name": "oracleData",
          "type": "uint256"
        },
        {
          "internalType": "uint8",
          "name": "juryAccept",
          "type": "uint8"
        },
        {
          "internalType": "uint8",
          "name": "juryReject",
          "type": "uint8"
        }
      ],
      "name": "EmitHFClaimUpdated",
      "outputs": [],
      "stateMutability": "nonpayable",
      "type": "function"
    },
    {
      "inputs": [
        {
          "internalType": "address",
          "name": "user",
          "type": "address"
        },
        {
          "internalType": "uint256",
          "name": "amount",
          "type": "uint256"
        }
      ],
      "name": "EmitHFCoinBurned",
      "outputs": [],
      "stateMutability": "nonpayable",
      "type": "function"
    },
    {
      "inputs": [
        {
          "internalType": "address",
          "name": "user",
          "type": "address"
        },
        {
          "internalType": "uint256",
          "name": "amount",
          "type": "uint256"
        }
      ],
      "name": "EmitHFCoinMinted",
      "outputs": [],
      "stateMutability": "nonpayable",
      "type": "function"
    },
    {
      "inputs": [
        {
          "internalType": "address",
          "name": "sender",
          "type": "address"
        },
        {
          "internalType": "address",
          "name": "receiver",
          "type": "address"
        },
        {
          "internalType": "uint256",
          "name": "amount",
          "type": "uint256"
        }
      ],
      "name": "EmitHFCoinTransferredFrom",
      "outputs": [],
      "stateMutability": "nonpayable",
      "type": "function"
    },
    {
      "inputs": [
        {
          "internalType": "address",
          "name": "investor",
          "type": "address"
        },
        {
          "internalType": "uint256",
          "name": "ticketId",
          "type": "uint256"
        },
        {
          "internalType": "int256",
          "name": "reimburseAmount",
          "type": "int256"
        },
        {
          "internalType": "int256",
          "name": "totalInvestments",
          "type": "int256"
        },
        {
          "internalType": "string",
          "name": "ticketName",
          "type": "string"
        }
      ],
      "name": "EmitInvestReimbursed",
      "outputs": [],
      "stateMutability": "nonpayable",
      "type": "function"
    },
    {
      "inputs": [
        {
          "internalType": "address",
          "name": "investor",
          "type": "address"
        },
        {
          "internalType": "uint256",
          "name": "ticketId",
          "type": "uint256"
        },
        {
          "internalType": "int256",
          "name": "earning",
          "type": "int256"
        },
        {
          "components": [
            {
              "internalType": "uint256",
              "name": "ticketId",
              "type": "uint256"
            },
            {
              "internalType": "string",
              "name": "bidProcessType",
              "type": "string"
            },
            {
              "internalType": "int256",
              "name": "claimAmount",
              "type": "int256"
            },
            {
              "internalType": "int256",
              "name": "premiumAmount",
              "type": "int256"
            },
            {
              "internalType": "int256",
              "name": "authorizedAmount",
              "type": "int256"
            },
            {
              "internalType": "int256",
              "name": "donatedAmount",
              "type": "int256"
            },
            {
              "internalType": "int64",
              "name": "marginRatio",
              "type": "int64"
            },
            {
              "internalType": "string",
              "name": "ticketName",
              "type": "string"
            },
            {
              "internalType": "enum HFEnum.TicketStatus",
              "name": "ticketStatus",
              "type": "uint8"
            },
            {
              "components": [
                {
                  "internalType": "uint256",
                  "name": "closingDate",
                  "type": "uint256"
                },
                {
                  "internalType": "uint256",
                  "name": "startDate",
                  "type": "uint256"
                },
                {
                  "internalType": "uint256",
                  "name": "endDate",
                  "type": "uint256"
                }
              ],
              "internalType": "struct HFEntity.TicketDate",
              "name": "dates",
              "type": "tuple"
            },
            {
              "components": [
                {
                  "internalType": "uint256",
                  "name": "ticketId",
                  "type": "uint256"
                },
                {
                  "internalType": "address",
                  "name": "investorAddress",
                  "type": "address"
                },
                {
                  "internalType": "int256",
                  "name": "askingAmount",
                  "type": "int256"
                },
                {
                  "internalType": "int256",
                  "name": "earning",
                  "type": "int256"
                },
                {
                  "internalType": "string",
                  "name": "bidProcessType",
                  "type": "string"
                },
                {
                  "internalType": "string",
                  "name": "ticketName",
                  "type": "string"
                },
                {
                  "internalType": "bool",
                  "name": "tookPremium",
                  "type": "bool"
                },
                {
                  "internalType": "bool",
                  "name": "reimbursedInvest",
                  "type": "bool"
                },
                {
                  "internalType": "bool",
                  "name": "removed",
                  "type": "bool"
                },
                {
                  "internalType": "int256",
                  "name": "expiredInvestAmount",
                  "type": "int256"
                },
                {
                  "internalType": "uint256",
                  "name": "askingExpireDate",
                  "type": "uint256"
                },
                {
                  "internalType": "uint256",
                  "name": "investDate",
                  "type": "uint256"
                }
              ],
              "internalType": "struct HFEntity.Investment",
              "name": "selectedBidding",
              "type": "tuple"
            }
          ],
          "internalType": "struct HFEntity.Ticket",
          "name": "ticket",
          "type": "tuple"
        }
      ],
      "name": "EmitInvestorEarned",
      "outputs": [],
      "stateMutability": "nonpayable",
      "type": "function"
    },
    {
      "inputs": [
        {
          "internalType": "address",
          "name": "buyer",
          "type": "address"
        },
        {
          "internalType": "uint256",
          "name": "ticketId",
          "type": "uint256"
        },
        {
          "internalType": "int256",
          "name": "totalInvestments",
          "type": "int256"
        },
        {
          "internalType": "string",
          "name": "ticketName",
          "type": "string"
        }
      ],
      "name": "EmitInvestsClaimed",
      "outputs": [],
      "stateMutability": "nonpayable",
      "type": "function"
    },
    {
      "inputs": [
        {
          "internalType": "uint256",
          "name": "ticketId",
          "type": "uint256"
        },
        {
          "internalType": "uint256",
          "name": "tokenId",
          "type": "uint256"
        }
      ],
      "name": "EmitNFTAdded",
      "outputs": [],
      "stateMutability": "nonpayable",
      "type": "function"
    },
    {
      "inputs": [
        {
          "internalType": "uint256",
          "name": "tokenId",
          "type": "uint256"
        }
      ],
      "name": "EmitNFTBurned",
      "outputs": [],
      "stateMutability": "nonpayable",
      "type": "function"
    },
    {
      "inputs": [
        {
          "components": [
            {
              "internalType": "uint256",
              "name": "tokenId",
              "type": "uint256"
            },
            {
              "internalType": "address",
              "name": "tokenContract",
              "type": "address"
            },
            {
              "internalType": "enum HFEnum.NFTType",
              "name": "tokenType",
              "type": "uint8"
            }
          ],
          "internalType": "struct HFEntity.NFT",
          "name": "nft",
          "type": "tuple"
        }
      ],
      "name": "EmitNFTCreated",
      "outputs": [],
      "stateMutability": "nonpayable",
      "type": "function"
    },
    {
      "inputs": [
        {
          "internalType": "address",
          "name": "user",
          "type": "address"
        },
        {
          "internalType": "uint256",
          "name": "tokenId",
          "type": "uint256"
        },
        {
          "internalType": "string",
          "name": "nftURI",
          "type": "string"
        }
      ],
      "name": "EmitNFTMinted",
      "outputs": [],
      "stateMutability": "nonpayable",
      "type": "function"
    },
    {
      "inputs": [
        {
          "internalType": "address",
          "name": "from",
          "type": "address"
        },
        {
          "internalType": "address",
          "name": "to",
          "type": "address"
        },
        {
          "internalType": "uint256",
          "name": "tokenId",
          "type": "uint256"
        }
      ],
      "name": "EmitNFTTransferred",
      "outputs": [],
      "stateMutability": "nonpayable",
      "type": "function"
    },
    {
      "inputs": [
        {
          "internalType": "address",
          "name": "buyer",
          "type": "address"
        },
        {
          "internalType": "uint256",
          "name": "ticketId",
          "type": "uint256"
        },
        {
          "components": [
            {
              "internalType": "uint256",
              "name": "ticketId",
              "type": "uint256"
            },
            {
              "internalType": "address",
              "name": "buyerAddress",
              "type": "address"
            },
            {
              "internalType": "int256",
              "name": "askingClaimAmount",
              "type": "int256"
            },
            {
              "internalType": "int256",
              "name": "askingPremiumAmount",
              "type": "int256"
            },
            {
              "internalType": "string",
              "name": "bidProcessType",
              "type": "string"
            },
            {
              "internalType": "string",
              "name": "ticketName",
              "type": "string"
            },
            {
              "internalType": "bool",
              "name": "reimbursedPremium",
              "type": "bool"
            }
          ],
          "internalType": "struct HFEntity.Premium",
          "name": "premium",
          "type": "tuple"
        }
      ],
      "name": "EmitPremiumCreated",
      "outputs": [],
      "stateMutability": "nonpayable",
      "type": "function"
    },
    {
      "inputs": [
        {
          "internalType": "address",
          "name": "buyer",
          "type": "address"
        },
        {
          "internalType": "uint256",
          "name": "ticketId",
          "type": "uint256"
        },
        {
          "internalType": "int256",
          "name": "reimburseAmount",
          "type": "int256"
        },
        {
          "internalType": "int256",
          "name": "totalPremium",
          "type": "int256"
        },
        {
          "internalType": "string",
          "name": "ticketName",
          "type": "string"
        }
      ],
      "name": "EmitPremiumReimbursed",
      "outputs": [],
      "stateMutability": "nonpayable",
      "type": "function"
    },
    {
      "inputs": [
        {
          "internalType": "address",
          "name": "user",
          "type": "address"
        },
        {
          "internalType": "uint256",
          "name": "ticketId",
          "type": "uint256"
        },
        {
          "components": [
            {
              "internalType": "uint256",
              "name": "ticketId",
              "type": "uint256"
            },
            {
              "internalType": "string",
              "name": "bidProcessType",
              "type": "string"
            },
            {
              "internalType": "int256",
              "name": "claimAmount",
              "type": "int256"
            },
            {
              "internalType": "int256",
              "name": "premiumAmount",
              "type": "int256"
            },
            {
              "internalType": "int256",
              "name": "authorizedAmount",
              "type": "int256"
            },
            {
              "internalType": "int256",
              "name": "donatedAmount",
              "type": "int256"
            },
            {
              "internalType": "int64",
              "name": "marginRatio",
              "type": "int64"
            },
            {
              "internalType": "string",
              "name": "ticketName",
              "type": "string"
            },
            {
              "internalType": "enum HFEnum.TicketStatus",
              "name": "ticketStatus",
              "type": "uint8"
            },
            {
              "components": [
                {
                  "internalType": "uint256",
                  "name": "closingDate",
                  "type": "uint256"
                },
                {
                  "internalType": "uint256",
                  "name": "startDate",
                  "type": "uint256"
                },
                {
                  "internalType": "uint256",
                  "name": "endDate",
                  "type": "uint256"
                }
              ],
              "internalType": "struct HFEntity.TicketDate",
              "name": "dates",
              "type": "tuple"
            },
            {
              "components": [
                {
                  "internalType": "uint256",
                  "name": "ticketId",
                  "type": "uint256"
                },
                {
                  "internalType": "address",
                  "name": "investorAddress",
                  "type": "address"
                },
                {
                  "internalType": "int256",
                  "name": "askingAmount",
                  "type": "int256"
                },
                {
                  "internalType": "int256",
                  "name": "earning",
                  "type": "int256"
                },
                {
                  "internalType": "string",
                  "name": "bidProcessType",
                  "type": "string"
                },
                {
                  "internalType": "string",
                  "name": "ticketName",
                  "type": "string"
                },
                {
                  "internalType": "bool",
                  "name": "tookPremium",
                  "type": "bool"
                },
                {
                  "internalType": "bool",
                  "name": "reimbursedInvest",
                  "type": "bool"
                },
                {
                  "internalType": "bool",
                  "name": "removed",
                  "type": "bool"
                },
                {
                  "internalType": "int256",
                  "name": "expiredInvestAmount",
                  "type": "int256"
                },
                {
                  "internalType": "uint256",
                  "name": "askingExpireDate",
                  "type": "uint256"
                },
                {
                  "internalType": "uint256",
                  "name": "investDate",
                  "type": "uint256"
                }
              ],
              "internalType": "struct HFEntity.Investment",
              "name": "selectedBidding",
              "type": "tuple"
            }
          ],
          "internalType": "struct HFEntity.Ticket",
          "name": "ticket",
          "type": "tuple"
        }
      ],
      "name": "EmitTicketCreated",
      "outputs": [],
      "stateMutability": "nonpayable",
      "type": "function"
    },
    {
      "inputs": [
        {
          "internalType": "address",
          "name": "user",
          "type": "address"
        },
        {
          "internalType": "uint256",
          "name": "ticketId",
          "type": "uint256"
        },
        {
          "internalType": "enum HFEnum.TicketStatus",
          "name": "previousStatus",
          "type": "uint8"
        },
        {
          "components": [
            {
              "internalType": "uint256",
              "name": "ticketId",
              "type": "uint256"
            },
            {
              "internalType": "string",
              "name": "bidProcessType",
              "type": "string"
            },
            {
              "internalType": "int256",
              "name": "claimAmount",
              "type": "int256"
            },
            {
              "internalType": "int256",
              "name": "premiumAmount",
              "type": "int256"
            },
            {
              "internalType": "int256",
              "name": "authorizedAmount",
              "type": "int256"
            },
            {
              "internalType": "int256",
              "name": "donatedAmount",
              "type": "int256"
            },
            {
              "internalType": "int64",
              "name": "marginRatio",
              "type": "int64"
            },
            {
              "internalType": "string",
              "name": "ticketName",
              "type": "string"
            },
            {
              "internalType": "enum HFEnum.TicketStatus",
              "name": "ticketStatus",
              "type": "uint8"
            },
            {
              "components": [
                {
                  "internalType": "uint256",
                  "name": "closingDate",
                  "type": "uint256"
                },
                {
                  "internalType": "uint256",
                  "name": "startDate",
                  "type": "uint256"
                },
                {
                  "internalType": "uint256",
                  "name": "endDate",
                  "type": "uint256"
                }
              ],
              "internalType": "struct HFEntity.TicketDate",
              "name": "dates",
              "type": "tuple"
            },
            {
              "components": [
                {
                  "internalType": "uint256",
                  "name": "ticketId",
                  "type": "uint256"
                },
                {
                  "internalType": "address",
                  "name": "investorAddress",
                  "type": "address"
                },
                {
                  "internalType": "int256",
                  "name": "askingAmount",
                  "type": "int256"
                },
                {
                  "internalType": "int256",
                  "name": "earning",
                  "type": "int256"
                },
                {
                  "internalType": "string",
                  "name": "bidProcessType",
                  "type": "string"
                },
                {
                  "internalType": "string",
                  "name": "ticketName",
                  "type": "string"
                },
                {
                  "internalType": "bool",
                  "name": "tookPremium",
                  "type": "bool"
                },
                {
                  "internalType": "bool",
                  "name": "reimbursedInvest",
                  "type": "bool"
                },
                {
                  "internalType": "bool",
                  "name": "removed",
                  "type": "bool"
                },
                {
                  "internalType": "int256",
                  "name": "expiredInvestAmount",
                  "type": "int256"
                },
                {
                  "internalType": "uint256",
                  "name": "askingExpireDate",
                  "type": "uint256"
                },
                {
                  "internalType": "uint256",
                  "name": "investDate",
                  "type": "uint256"
                }
              ],
              "internalType": "struct HFEntity.Investment",
              "name": "selectedBidding",
              "type": "tuple"
            }
          ],
          "internalType": "struct HFEntity.Ticket",
          "name": "ticket",
          "type": "tuple"
        }
      ],
      "name": "EmitTicketStatusUpdate",
      "outputs": [],
      "stateMutability": "nonpayable",
      "type": "function"
    }
  ],
  "bytecode": "0x608060405234801561001057600080fd5b50612d1b806100206000396000f3fe608060405234801561001057600080fd5b50600436106101735760003560e01c80637ddb7a47116100de578063cdf9bcf511610097578063df333db311610071578063df333db3146103c4578063dfc90c4e146103e0578063ed242f01146103fc578063f5be735e1461041857610173565b8063cdf9bcf514610370578063da5677281461038c578063df1c5ede146103a857610173565b80637ddb7a47146102c85780637fa20ae5146102e457806387b4c90014610300578063886812f21461031c578063b74ade5514610338578063bf6ec4651461035457610173565b80633468a1d2116101305780633468a1d2146102205780634aface861461023c5780634ef2236114610258578063515784b114610274578063688b4e30146102905780637cdeb65d146102ac57610173565b8063037edc731461017857806306d61fc1146101945780630d349f90146101b05780631526ee01146101cc5780631ecadc5a146101e85780631f0285fc14610204575b600080fd5b610192600480360381019061018d9190611c7a565b610434565b005b6101ae60048036038101906101a99190611733565b610474565b005b6101ca60048036038101906101c59190611f0c565b610502565b005b6101e660048036038101906101e19190611bab565b610532565b005b61020260048036038101906101fd919061193a565b610597565b005b61021e600480360381019061021991906117b6565b6105ee565b005b61023a60048036038101906102359190611ce9565b610644565b005b610256600480360381019061025191906118a0565b6106c2565b005b610272600480360381019061026d9190611e70565b610721565b005b61028e60048036038101906102899190611e01565b6107a5565b005b6102aa60048036038101906102a59190611809565b610815565b005b6102c660048036038101906102c19190611edf565b61086f565b005b6102e260048036038101906102dd91906116a0565b6108cd565b005b6102fe60048036038101906102f99190611809565b61092d565b005b61031a60048036038101906103159190611a40565b610989565b005b61033660048036038101906103319190611ab4565b6109e0565b005b610352600480360381019061034d91906118a0565b610a4b565b005b61036e600480360381019061036991906116f3565b610aaa565b005b61038a600480360381019061038591906116a0565b610afc565b005b6103a660048036038101906103a19190611bab565b610b66565b005b6103c260048036038101906103bd9190611d92565b610bcb565b005b6103de60048036038101906103d99190611ce9565b610c31565b005b6103fa60048036038101906103f591906119bd565b610cb5565b005b610416600480360381019061041191906116f3565b610d29565b005b610432600480360381019061042d9190611f39565b610d7b565b005b7fd35bb95e09c04b219e35047ce7b7b300e3384264ef84a40456943dbc0fc17c148383836040516104679392919061230f565b60405180910390a1505050565b828473ffffffffffffffffffffffffffffffffffffffff167f2e39ed204c382c88466e96b4b4b3450f59e7331ae6b24216cb932b3009b6c90c83602001518460400151856060015186608001518760c001518860e001518a8a61010001518b61012001518c61014001516040516104f49a999897969594939291906126b8565b60405180910390a350505050565b807f3c176691ca154a2f6fe978a2a633a33ee77dbe2902e67a75400720845a4b2ce160405160405180910390a250565b868873ffffffffffffffffffffffffffffffffffffffff167f3617ce6430d02957e21f0589bad1f608d990c7fb2e4ae47b97e8a94ca260a261888888888888426040516105859796959493929190612653565b60405180910390a35050505050505050565b828473ffffffffffffffffffffffffffffffffffffffff167f6fe32f7a5604a2e42a7dbe071c424d523dc46f076573a611c2226601d2a9602484846040516105e0929190612509565b60405180910390a350505050565b818373ffffffffffffffffffffffffffffffffffffffff167fd7f47e56e8d113100e718083b943e4c15624ce943d39c0d71ea77597613fc1fb8342604051610637929190612585565b60405180910390a3505050565b8360000151858773ffffffffffffffffffffffffffffffffffffffff167f67b4ec3bec86d2cc79e2299536259d573dac275456cea9ce5a96598ff8e9485e8760200151886040015189608001518989898d60a001518e60e001516040516106b2989796959493929190612810565b60405180910390a4505050505050565b848673ffffffffffffffffffffffffffffffffffffffff167f7949a05ab70012f163aec147f3942be6ac2a96f8a51e7bfcbea04160fadc20ed86868686426040516107119594939291906124bb565b60405180910390a3505050505050565b818373ffffffffffffffffffffffffffffffffffffffff167fe26a4ad6cf1d4fb3e24766e29647b27a0fc10b6623f0e91dbc0849f31111858b83602001518460400151856060015186608001518760c001518860e001518961010001518a6101200151604051610798989796959493929190612769565b60405180910390a3505050565b818373ffffffffffffffffffffffffffffffffffffffff167f0c94763ec0201e424e026d98a547cf24a7fd6aa2b1ae5eb3711efdc84a02c6e48360400151846060015185608001518660a001518760c0015160405161080895949392919061240e565b60405180910390a3505050565b838573ffffffffffffffffffffffffffffffffffffffff167f61a3189eb71ff5a327ee509337be67ab0365af9702cc4fb7518c75efaa2dd374858585604051610860939291906123d0565b60405180910390a35050505050565b806020015173ffffffffffffffffffffffffffffffffffffffff1681600001517f1ebfdd1669f6bdf9d8c1eeb8f7ec60bae46400007d575fd508be533aa0961aa383604001516040516108c2919061234d565b60405180910390a350565b808273ffffffffffffffffffffffffffffffffffffffff168473ffffffffffffffffffffffffffffffffffffffff167f209eb5082bc3bcbd509ae679a680b3bb2a11b77fea542a93e205020af76529fc60405160405180910390a4505050565b838573ffffffffffffffffffffffffffffffffffffffff167fc6e236b5427d0964869f6c0cfc3a08f8159713bbb5e0c53032ad9bb9661153e48585854260405161097a949392919061246f565b60405180910390a35050505050565b828473ffffffffffffffffffffffffffffffffffffffff167f3f46d6cc6ed61e3f34b58106c5caf092a482b2fbdf325094e2e3f4d6c681f0a284846040516109d29291906125ae565b60405180910390a350505050565b888a73ffffffffffffffffffffffffffffffffffffffff167fa0dc4454a8f1de280f6d54010f118203d554a1d84a75965ee937c4de388884d28a8a8a8a8a8a8a8a42604051610a37999897969594939291906125d2565b60405180910390a350505050505050505050565b848673ffffffffffffffffffffffffffffffffffffffff167fab39a0cb69a09391807742cbe2b6592168d2ccf6c99dc21229d4ec71a705409e8686868642604051610a9a9594939291906124bb565b60405180910390a3505050505050565b8173ffffffffffffffffffffffffffffffffffffffff167fa776666b496a4f9e8b7b6512c2179bc08266f06ecbbe4b9fae840d90dc88b95b82604051610af091906127f5565b60405180910390a25050565b8173ffffffffffffffffffffffffffffffffffffffff168373ffffffffffffffffffffffffffffffffffffffff167ff57c09bfc00ed757c2f58441fb4d57676e76029dc4061a589077f6f705d5f41e83604051610b5991906127f5565b60405180910390a3505050565b868873ffffffffffffffffffffffffffffffffffffffff167fbe4039a8289042f4d5441d15b87135e9652fdf04bab0e465c056bef12389587688888888888842604051610bb99796959493929190612653565b60405180910390a35050505050505050565b818373ffffffffffffffffffffffffffffffffffffffff167f3a65061534289f5d95b5fae3994feb404bd1866f1be392a24c0940c231a7d86d83604001518460600151856080015142604051610c249493929190612539565b60405180910390a3505050565b8360000151858773ffffffffffffffffffffffffffffffffffffffff167f96180a2c1bead4fb0246c01a08e23092d58213e4c2b5dbeb7d1a3587323700c58760200151886040015189608001518989898d60a001518e60e001518f60600151604051610ca59998979695949392919061288e565b60405180910390a4505050505050565b828473ffffffffffffffffffffffffffffffffffffffff167f55e5b80612209c3ca0a362e62a67fd170a5fbe343c20f5808163f3c9e6fc7f90836080015184604001518560600151878760e00151886101000151604051610d1b96959493929190612368565b60405180910390a350505050565b8173ffffffffffffffffffffffffffffffffffffffff167f84a9d50b32bb371aad0b600e2869fb5a48b3c6ff44f51e85648e2f9401d5da8982604051610d6f91906127f5565b60405180910390a25050565b80827fe3b607f961c2e42f121175b28052f87521fd49b234f69f5acbbc257718ab3b9360405160405180910390a35050565b6000610dc0610dbb84612947565b612922565b90508083825260208201905082856020860282011115610de357610de2612bca565b5b60005b85811015610e3157813567ffffffffffffffff811115610e0957610e08612bbb565b5b808601610e168982610f94565b85526020850194506020840193505050600181019050610de6565b5050509392505050565b6000610e4e610e4984612973565b612922565b905082815260208101848484011115610e6a57610e69612bcf565b5b610e75848285612ae5565b509392505050565b600081359050610e8c81612c2b565b92915050565b600082601f830112610ea757610ea6612bbb565b5b8135610eb7848260208601610dad565b91505092915050565b600081359050610ecf81612c42565b92915050565b600081359050610ee481612c59565b92915050565b600081359050610ef981612c69565b92915050565b600081359050610f0e81612c79565b92915050565b600081359050610f2381612c89565b92915050565b600081359050610f3881612ca0565b92915050565b60008083601f840112610f5457610f53612bbb565b5b8235905067ffffffffffffffff811115610f7157610f70612bb6565b5b602083019150836001820283011115610f8d57610f8c612bca565b5b9250929050565b600082601f830112610fa957610fa8612bbb565b5b8135610fb9848260208601610e3b565b91505092915050565b600060608284031215610fd857610fd7612bc0565b5b610fe26060612922565b9050600082013567ffffffffffffffff81111561100257611001612bc5565b5b61100e84828501610f94565b600083015250602082013567ffffffffffffffff81111561103257611031612bc5565b5b61103e84828501610e92565b602083015250604082013567ffffffffffffffff81111561106257611061612bc5565b5b61106e84828501610e92565b60408301525092915050565b6000610100828403121561109157611090612bc0565b5b61109c610100612922565b905060006110ac84828501611676565b60008301525060206110c08482850161168b565b60208301525060406110d484828501610ed5565b604083015250606082013567ffffffffffffffff8111156110f8576110f7612bc5565b5b61110484828501610fc2565b606083015250608061111884828501610ec0565b60808301525060a061112c84828501611676565b60a08301525060c061114084828501611676565b60c08301525060e061115484828501611676565b60e08301525092915050565b600060a0828403121561117657611175612bc0565b5b61118060a0612922565b9050600061119084828501611676565b60008301525060206111a484828501610e7d565b60208301525060406111b884828501610f14565b604083015250606082013567ffffffffffffffff8111156111dc576111db612bc5565b5b6111e884828501610f94565b60608301525060806111fc84828501610ec0565b60808301525092915050565b6000610180828403121561121f5761121e612bc0565b5b61122a610180612922565b9050600061123a84828501611676565b600083015250602061124e84828501610e7d565b602083015250604061126284828501610f14565b604083015250606061127684828501610f14565b606083015250608082013567ffffffffffffffff81111561129a57611299612bc5565b5b6112a684828501610f94565b60808301525060a082013567ffffffffffffffff8111156112ca576112c9612bc5565b5b6112d684828501610f94565b60a08301525060c06112ea84828501610ec0565b60c08301525060e06112fe84828501610ec0565b60e08301525061010061131384828501610ec0565b6101008301525061012061132984828501610f14565b6101208301525061014061133f84828501611676565b6101408301525061016061135584828501611676565b6101608301525092915050565b60006060828403121561137857611377612bc0565b5b6113826060612922565b9050600061139284828501611676565b60008301525060206113a684828501610e7d565b60208301525060406113ba84828501610eea565b60408301525092915050565b600060e082840312156113dc576113db612bc0565b5b6113e660e0612922565b905060006113f684828501611676565b600083015250602061140a84828501610e7d565b602083015250604061141e84828501610f14565b604083015250606061143284828501610f14565b606083015250608082013567ffffffffffffffff81111561145657611455612bc5565b5b61146284828501610f94565b60808301525060a082013567ffffffffffffffff81111561148657611485612bc5565b5b61149284828501610f94565b60a08301525060c06114a684828501610ec0565b60c08301525092915050565b6000606082840312156114c8576114c7612bc0565b5b6114d26060612922565b905060006114e284828501611676565b60008301525060206114f684828501611676565b602083015250604061150a84828501611676565b60408301525092915050565b60006101a0828403121561152d5761152c612bc0565b5b611538610160612922565b9050600061154884828501611676565b600083015250602082013567ffffffffffffffff81111561156c5761156b612bc5565b5b61157884828501610f94565b602083015250604061158c84828501610f14565b60408301525060606115a084828501610f14565b60608301525060806115b484828501610f14565b60808301525060a06115c884828501610f14565b60a08301525060c06115dc84828501610f29565b60c08301525060e082013567ffffffffffffffff811115611600576115ff612bc5565b5b61160c84828501610f94565b60e08301525061010061162184828501610eff565b61010083015250610120611637848285016114b2565b6101208301525061018082013567ffffffffffffffff81111561165d5761165c612bc5565b5b61166984828501611208565b6101408301525092915050565b60008135905061168581612cb7565b92915050565b60008135905061169a81612cce565b92915050565b6000806000606084860312156116b9576116b8612bd9565b5b60006116c786828701610e7d565b93505060206116d886828701610e7d565b92505060406116e986828701611676565b9150509250925092565b6000806040838503121561170a57611709612bd9565b5b600061171885828601610e7d565b925050602061172985828601611676565b9150509250929050565b6000806000806080858703121561174d5761174c612bd9565b5b600061175b87828801610e7d565b945050602061176c87828801611676565b935050604061177d87828801610eff565b925050606085013567ffffffffffffffff81111561179e5761179d612bd4565b5b6117aa87828801611516565b91505092959194509250565b6000806000606084860312156117cf576117ce612bd9565b5b60006117dd86828701610e7d565b93505060206117ee86828701611676565b92505060406117ff86828701610f14565b9150509250925092565b600080600080600060a0868803121561182557611824612bd9565b5b600061183388828901610e7d565b955050602061184488828901611676565b945050604061185588828901610f14565b935050606061186688828901610f14565b925050608086013567ffffffffffffffff81111561188757611886612bd4565b5b61189388828901610f94565b9150509295509295909350565b60008060008060008060a087890312156118bd576118bc612bd9565b5b60006118cb89828a01610e7d565b96505060206118dc89828a01611676565b95505060406118ed89828a01610f14565b945050606087013567ffffffffffffffff81111561190e5761190d612bd4565b5b61191a89828a01610f3e565b9350935050608061192d89828a01610ec0565b9150509295509295509295565b6000806000806080858703121561195457611953612bd9565b5b600061196287828801610e7d565b945050602061197387828801611676565b935050604061198487828801610f14565b925050606085013567ffffffffffffffff8111156119a5576119a4612bd4565b5b6119b187828801610f94565b91505092959194509250565b600080600080608085870312156119d7576119d6612bd9565b5b60006119e587828801610e7d565b94505060206119f687828801611676565b9350506040611a0787828801610f14565b925050606085013567ffffffffffffffff811115611a2857611a27612bd4565b5b611a3487828801611516565b91505092959194509250565b60008060008060608587031215611a5a57611a59612bd9565b5b6000611a6887828801610e7d565b9450506020611a7987828801611676565b935050604085013567ffffffffffffffff811115611a9a57611a99612bd4565b5b611aa687828801610f3e565b925092505092959194509250565b6000806000806000806000806000806101008b8d031215611ad857611ad7612bd9565b5b6000611ae68d828e01610e7d565b9a50506020611af78d828e01611676565b99505060408b013567ffffffffffffffff811115611b1857611b17612bd4565b5b611b248d828e01610f3e565b98509850506060611b378d828e01610f14565b9650506080611b488d828e01610f14565b95505060a0611b598d828e01610f14565b94505060c08b013567ffffffffffffffff811115611b7a57611b79612bd4565b5b611b868d828e01610f3e565b935093505060e0611b998d828e01610eff565b9150509295989b9194979a5092959850565b60008060008060008060008060c0898b031215611bcb57611bca612bd9565b5b6000611bd98b828c01610e7d565b9850506020611bea8b828c01611676565b975050604089013567ffffffffffffffff811115611c0b57611c0a612bd4565b5b611c178b828c01610f3e565b96509650506060611c2a8b828c01610f14565b945050608089013567ffffffffffffffff811115611c4b57611c4a612bd4565b5b611c578b828c01610f3e565b935093505060a0611c6a8b828c01610eff565b9150509295985092959890939650565b600080600060608486031215611c9357611c92612bd9565b5b6000611ca186828701610e7d565b9350506020611cb286828701611676565b925050604084013567ffffffffffffffff811115611cd357611cd2612bd4565b5b611cdf86828701610f94565b9150509250925092565b60008060008060008060c08789031215611d0657611d05612bd9565b5b6000611d1489828a01610e7d565b9650506020611d2589828a01611676565b955050604087013567ffffffffffffffff811115611d4657611d45612bd4565b5b611d5289828a0161107a565b9450506060611d6389828a01611676565b9350506080611d7489828a0161168b565b92505060a0611d8589828a0161168b565b9150509295509295509295565b600080600060608486031215611dab57611daa612bd9565b5b6000611db986828701610e7d565b9350506020611dca86828701611676565b925050604084013567ffffffffffffffff811115611deb57611dea612bd4565b5b611df786828701611160565b9150509250925092565b600080600060608486031215611e1a57611e19612bd9565b5b6000611e2886828701610e7d565b9350506020611e3986828701611676565b925050604084013567ffffffffffffffff811115611e5a57611e59612bd4565b5b611e66868287016113c6565b9150509250925092565b600080600060608486031215611e8957611e88612bd9565b5b6000611e9786828701610e7d565b9350506020611ea886828701611676565b925050604084013567ffffffffffffffff811115611ec957611ec8612bd4565b5b611ed586828701611516565b9150509250925092565b600060608284031215611ef557611ef4612bd9565b5b6000611f0384828501611362565b91505092915050565b600060208284031215611f2257611f21612bd9565b5b6000611f3084828501611676565b91505092915050565b60008060408385031215611f5057611f4f612bd9565b5b6000611f5e85828601611676565b9250506020611f6f85828601611676565b9150509250929050565b6000611f8583836120c5565b905092915050565b611f9681612a0a565b82525050565b611fa581612a0a565b82525050565b6000611fb6826129b4565b611fc081856129d7565b935083602082028501611fd2856129a4565b8060005b8581101561200e5784840389528151611fef8582611f79565b9450611ffa836129ca565b925060208a01995050600181019050611fd6565b50829750879550505050505092915050565b61202981612a1c565b82525050565b61203881612a1c565b82525050565b61204781612aaf565b82525050565b61205681612ac1565b82525050565b61206581612ad3565b82525050565b61207481612a61565b82525050565b61208381612a61565b82525050565b61209281612a6b565b82525050565b60006120a483856129f9565b93506120b1838584612ae5565b6120ba83612bde565b840190509392505050565b60006120d0826129bf565b6120da81856129e8565b93506120ea818560208601612af4565b6120f381612bde565b840191505092915050565b6000612109826129bf565b61211381856129f9565b9350612123818560208601612af4565b61212c81612bde565b840191505092915050565b6000606083016000830151848203600086015261215482826120c5565b9150506020830151848203602086015261216e8282611fab565b915050604083015184820360408601526121888282611fab565b9150508091505092915050565b6000610180830160008301516121ae60008601826122e2565b5060208301516121c16020860182611f8d565b5060408301516121d4604086018261206b565b5060608301516121e7606086018261206b565b50608083015184820360808601526121ff82826120c5565b91505060a083015184820360a086015261221982826120c5565b91505060c083015161222e60c0860182612020565b5060e083015161224160e0860182612020565b50610100830151612256610100860182612020565b5061012083015161226b61012086018261206b565b506101408301516122806101408601826122e2565b506101608301516122956101608601826122e2565b508091505092915050565b6060820160008201516122b660008501826122e2565b5060208201516122c960208501826122e2565b5060408201516122dc60408501826122e2565b50505050565b6122eb81612a98565b82525050565b6122fa81612a98565b82525050565b61230981612aa2565b82525050565b60006060820190506123246000830186611f9c565b61233160208301856122f1565b818103604083015261234381846120fe565b9050949350505050565b6000602082019050612362600083018461204d565b92915050565b600060c08201905061237d600083018961207a565b61238a602083018861207a565b612397604083018761207a565b6123a4606083018661207a565b81810360808301526123b681856120fe565b90506123c560a083018461205c565b979650505050505050565b60006060820190506123e5600083018661207a565b6123f2602083018561207a565b818103604083015261240481846120fe565b9050949350505050565b600060a082019050612423600083018861207a565b612430602083018761207a565b818103604083015261244281866120fe565b9050818103606083015261245681856120fe565b9050612465608083018461202f565b9695505050505050565b6000608082019050612484600083018761207a565b612491602083018661207a565b81810360408301526124a381856120fe565b90506124b260608301846122f1565b95945050505050565b60006080820190506124d0600083018861207a565b81810360208301526124e3818688612098565b90506124f2604083018561202f565b6124ff60608301846122f1565b9695505050505050565b600060408201905061251e600083018561207a565b818103602083015261253081846120fe565b90509392505050565b600060808201905061254e600083018761207a565b818103602083015261256081866120fe565b905061256f604083018561202f565b61257c60608301846122f1565b95945050505050565b600060408201905061259a600083018561207a565b6125a760208301846122f1565b9392505050565b600060208201905081810360008301526125c9818486612098565b90509392505050565b600060e08201905081810360008301526125ed818b8d612098565b90506125fc602083018a61207a565b612609604083018961207a565b612616606083018861207a565b8181036080830152612629818688612098565b905061263860a083018561205c565b61264560c08301846122f1565b9a9950505050505050505050565b600060a082019050818103600083015261266e81898b612098565b905061267d602083018861207a565b8181036040830152612690818688612098565b905061269f606083018561205c565b6126ac60808301846122f1565b98975050505050505050565b60006101808201905081810360008301526126d3818d6120fe565b90506126e2602083018c61207a565b6126ef604083018b61207a565b6126fc606083018a61207a565b6127096080830189612089565b81810360a083015261271b81886120fe565b905061272a60c083018761205c565b61273760e083018661205c565b6127456101008301856122a0565b8181036101608301526127588184612195565b90509b9a5050505050505050505050565b6000610140820190508181036000830152612784818b6120fe565b9050612793602083018a61207a565b6127a0604083018961207a565b6127ad606083018861207a565b6127ba6080830187612089565b81810360a08301526127cc81866120fe565b90506127db60c083018561205c565b6127e860e08301846122a0565b9998505050505050505050565b600060208201905061280a60008301846122f1565b92915050565b600061010082019050612826600083018b612300565b612833602083018a61203e565b612840604083018961202f565b61284d60608301886122f1565b61285a6080830187612300565b61286760a0830186612300565b61287460c08301856122f1565b61288160e08301846122f1565b9998505050505050505050565b6000610120820190506128a4600083018c612300565b6128b1602083018b61203e565b6128be604083018a61202f565b6128cb60608301896122f1565b6128d86080830188612300565b6128e560a0830187612300565b6128f260c08301866122f1565b6128ff60e08301856122f1565b8181036101008301526129128184612137565b90509a9950505050505050505050565b600061292c61293d565b90506129388282612b27565b919050565b6000604051905090565b600067ffffffffffffffff82111561296257612961612b87565b5b602082029050602081019050919050565b600067ffffffffffffffff82111561298e5761298d612b87565b5b61299782612bde565b9050602081019050919050565b6000819050602082019050919050565b600081519050919050565b600081519050919050565b6000602082019050919050565b600082825260208201905092915050565b600082825260208201905092915050565b600082825260208201905092915050565b6000612a1582612a78565b9050919050565b60008115159050919050565b6000819050612a3682612bef565b919050565b6000819050612a4982612c03565b919050565b6000819050612a5c82612c17565b919050565b6000819050919050565b60008160070b9050919050565b600073ffffffffffffffffffffffffffffffffffffffff82169050919050565b6000819050919050565b600060ff82169050919050565b6000612aba82612a28565b9050919050565b6000612acc82612a3b565b9050919050565b6000612ade82612a4e565b9050919050565b82818337600083830152505050565b60005b83811015612b12578082015181840152602081019050612af7565b83811115612b21576000848401525b50505050565b612b3082612bde565b810181811067ffffffffffffffff82111715612b4f57612b4e612b87565b5b80604052505050565b7f4e487b7100000000000000000000000000000000000000000000000000000000600052602160045260246000fd5b7f4e487b7100000000000000000000000000000000000000000000000000000000600052604160045260246000fd5b600080fd5b600080fd5b600080fd5b600080fd5b600080fd5b600080fd5b600080fd5b600080fd5b6000601f19601f8301169050919050565b60058110612c0057612bff612b58565b5b50565b60048110612c1457612c13612b58565b5b50565b60078110612c2857612c27612b58565b5b50565b612c3481612a0a565b8114612c3f57600080fd5b50565b612c4b81612a1c565b8114612c5657600080fd5b50565b60058110612c6657600080fd5b50565b60048110612c7657600080fd5b50565b60078110612c8657600080fd5b50565b612c9281612a61565b8114612c9d57600080fd5b50565b612ca981612a6b565b8114612cb457600080fd5b50565b612cc081612a98565b8114612ccb57600080fd5b50565b612cd781612aa2565b8114612ce257600080fd5b5056fea2646970667358221220dc97ace9be5fa6c72c777612c67ebb25e2d24aad46354eb032fd6bc31a4e2dc864736f6c63430008070033",
  "linkReferences": {},
  "deployedLinkReferences": {}
}