{
  "_format": "hh-sol-artifact-1",
  "contractName": "HFEvent",
  "sourceName": "contracts/core/HFEvent.sol",
  "abi": [
    {
      "anonymous": false,
      "inputs": [
        {
          "indexed": true,
          "internalType": "address",
          "name": "investor",
          "type": "address"
        },
        {
          "indexed": true,
          "internalType": "uint256",
          "name": "ticketId",
          "type": "uint256"
        },
        {
          "indexed": false,
          "internalType": "string",
          "name": "bidProcessType",
          "type": "string"
        },
        {
          "indexed": false,
          "internalType": "int256",
          "name": "askingAmount",
          "type": "int256"
        },
        {
          "indexed": false,
          "internalType": "uint256",
          "name": "askingExpireDate",
          "type": "uint256"
        },
        {
          "indexed": false,
          "internalType": "string",
          "name": "ticketName",
          "type": "string"
        },
        {
          "indexed": false,
          "internalType": "enum HFEnum.TicketStatus",
          "name": "ticketStatus",
          "type": "uint8"
        },
        {
          "indexed": false,
          "internalType": "uint256",
          "name": "eventTimestamp",
          "type": "uint256"
        }
      ],
      "name": "BiddingAdded",
      "type": "event"
    },
    {
      "anonymous": false,
      "inputs": [
        {
          "indexed": true,
          "internalType": "address",
          "name": "investor",
          "type": "address"
        },
        {
          "indexed": true,
          "internalType": "uint256",
          "name": "ticketId",
          "type": "uint256"
        },
        {
          "indexed": false,
          "internalType": "string",
          "name": "bidProcessType",
          "type": "string"
        },
        {
          "indexed": false,
          "internalType": "uint256",
          "name": "eventTimestamp",
          "type": "uint256"
        }
      ],
      "name": "BiddingRemoved",
      "type": "event"
    },
    {
      "anonymous": false,
      "inputs": [
        {
          "indexed": true,
          "internalType": "address",
          "name": "investor",
          "type": "address"
        },
        {
          "indexed": true,
          "internalType": "uint256",
          "name": "ticketId",
          "type": "uint256"
        },
        {
          "indexed": false,
          "internalType": "string",
          "name": "bidProcessType",
          "type": "string"
        },
        {
          "indexed": false,
          "internalType": "int256",
          "name": "askingAmount",
          "type": "int256"
        },
        {
          "indexed": false,
          "internalType": "int256",
          "name": "claimAmount",
          "type": "int256"
        },
        {
          "indexed": false,
          "internalType": "int256",
          "name": "premiumAmount",
          "type": "int256"
        },
        {
          "indexed": false,
          "internalType": "string",
          "name": "ticketName",
          "type": "string"
        },
        {
          "indexed": false,
          "internalType": "enum HFEnum.TicketStatus",
          "name": "ticketStatus",
          "type": "uint8"
        },
        {
          "indexed": false,
          "internalType": "uint256",
          "name": "eventTimestamp",
          "type": "uint256"
        }
      ],
      "name": "BiddingSelected",
      "type": "event"
    },
    {
      "anonymous": false,
      "inputs": [
        {
          "indexed": true,
          "internalType": "address",
          "name": "investor",
          "type": "address"
        },
        {
          "indexed": true,
          "internalType": "uint256",
          "name": "ticketId",
          "type": "uint256"
        },
        {
          "indexed": false,
          "internalType": "string",
          "name": "bidProcessType",
          "type": "string"
        },
        {
          "indexed": false,
          "internalType": "int256",
          "name": "askingAmount",
          "type": "int256"
        },
        {
          "indexed": false,
          "internalType": "uint256",
          "name": "askingExpireDate",
          "type": "uint256"
        },
        {
          "indexed": false,
          "internalType": "string",
          "name": "ticketName",
          "type": "string"
        },
        {
          "indexed": false,
          "internalType": "enum HFEnum.TicketStatus",
          "name": "ticketStatus",
          "type": "uint8"
        },
        {
          "indexed": false,
          "internalType": "uint256",
          "name": "eventTimestamp",
          "type": "uint256"
        }
      ],
      "name": "BiddingUpdated",
      "type": "event"
    },
    {
      "anonymous": false,
      "inputs": [
        {
          "indexed": true,
          "internalType": "address",
          "name": "donor",
          "type": "address"
        },
        {
          "indexed": true,
          "internalType": "uint256",
          "name": "ticketId",
          "type": "uint256"
        },
        {
          "indexed": false,
          "internalType": "int256",
          "name": "amount",
          "type": "int256"
        },
        {
          "indexed": false,
          "internalType": "string",
          "name": "option",
          "type": "string"
        },
        {
          "indexed": false,
          "internalType": "bool",
          "name": "refunded",
          "type": "bool"
        },
        {
          "indexed": false,
          "internalType": "uint256",
          "name": "eventTimestamp",
          "type": "uint256"
        }
      ],
      "name": "DonationCreated",
      "type": "event"
    },
    {
      "anonymous": false,
      "inputs": [
        {
          "indexed": true,
          "internalType": "address",
          "name": "donor",
          "type": "address"
        },
        {
          "indexed": true,
          "internalType": "uint256",
          "name": "ticketId",
          "type": "uint256"
        },
        {
          "indexed": false,
          "internalType": "int256",
          "name": "amount",
          "type": "int256"
        },
        {
          "indexed": false,
          "internalType": "string",
          "name": "option",
          "type": "string"
        },
        {
          "indexed": false,
          "internalType": "bool",
          "name": "refunded",
          "type": "bool"
        },
        {
          "indexed": false,
          "internalType": "uint256",
          "name": "eventTimestamp",
          "type": "uint256"
        }
      ],
      "name": "DonationRefunded",
      "type": "event"
    },
    {
      "anonymous": false,
      "inputs": [
        {
          "indexed": true,
          "internalType": "address",
          "name": "donor",
          "type": "address"
        },
        {
          "indexed": true,
          "internalType": "uint256",
          "name": "ticketId",
          "type": "uint256"
        },
        {
          "indexed": false,
          "internalType": "int256",
          "name": "amount",
          "type": "int256"
        },
        {
          "indexed": false,
          "internalType": "string",
          "name": "option",
          "type": "string"
        },
        {
          "indexed": false,
          "internalType": "bool",
          "name": "refunded",
          "type": "bool"
        },
        {
          "indexed": false,
          "internalType": "uint256",
          "name": "eventTimestamp",
          "type": "uint256"
        }
      ],
      "name": "DonationUpdated",
      "type": "event"
    },
    {
      "anonymous": false,
      "inputs": [
        {
          "indexed": true,
          "internalType": "address",
          "name": "donee",
          "type": "address"
        },
        {
          "indexed": true,
          "internalType": "uint256",
          "name": "ticketId",
          "type": "uint256"
        },
        {
          "indexed": false,
          "internalType": "int256",
          "name": "sum",
          "type": "int256"
        },
        {
          "indexed": false,
          "internalType": "uint256",
          "name": "eventTimestamp",
          "type": "uint256"
        }
      ],
      "name": "DonationsReceived",
      "type": "event"
    },
    {
      "anonymous": false,
      "inputs": [
        {
          "indexed": true,
          "internalType": "address",
          "name": "user",
          "type": "address"
        },
        {
          "indexed": true,
          "internalType": "uint256",
          "name": "ticketId",
          "type": "uint256"
        },
        {
          "indexed": true,
          "internalType": "uint256",
          "name": "claimId",
          "type": "uint256"
        },
        {
          "indexed": false,
          "internalType": "uint8",
          "name": "round",
          "type": "uint8"
        },
        {
          "indexed": false,
          "internalType": "enum HFEnum.ClaimStatus",
          "name": "claimStatus",
          "type": "uint8"
        },
        {
          "indexed": false,
          "internalType": "bool",
          "name": "isApproved",
          "type": "bool"
        },
        {
          "indexed": false,
          "internalType": "uint256",
          "name": "oracleData",
          "type": "uint256"
        },
        {
          "indexed": false,
          "internalType": "uint8",
          "name": "juryAccept",
          "type": "uint8"
        },
        {
          "indexed": false,
          "internalType": "uint8",
          "name": "juryReject",
          "type": "uint8"
        },
        {
          "indexed": false,
          "internalType": "uint256",
          "name": "lastDecisionDate",
          "type": "uint256"
        },
        {
          "indexed": false,
          "internalType": "uint256",
          "name": "roundStartDate",
          "type": "uint256"
        },
        {
          "components": [
            {
              "internalType": "string",
              "name": "claimType",
              "type": "string"
            },
            {
              "internalType": "string[]",
              "name": "constraints",
              "type": "string[]"
            },
            {
              "internalType": "string[]",
              "name": "parameters",
              "type": "string[]"
            }
          ],
          "indexed": false,
          "internalType": "struct HFEntity.ClaimCondition",
          "name": "condition",
          "type": "tuple"
        },
        {
          "indexed": false,
          "internalType": "uint256",
          "name": "eventTimestamp",
          "type": "uint256"
        }
      ],
      "name": "HFClaimCreated",
      "type": "event"
    },
    {
      "anonymous": false,
      "inputs": [
        {
          "indexed": true,
          "internalType": "address",
          "name": "user",
          "type": "address"
        },
        {
          "indexed": true,
          "internalType": "uint256",
          "name": "ticketId",
          "type": "uint256"
        },
        {
          "indexed": true,
          "internalType": "uint256",
          "name": "claimId",
          "type": "uint256"
        },
        {
          "indexed": false,
          "internalType": "uint8",
          "name": "round",
          "type": "uint8"
        },
        {
          "indexed": false,
          "internalType": "enum HFEnum.ClaimStatus",
          "name": "claimStatus",
          "type": "uint8"
        },
        {
          "indexed": false,
          "internalType": "bool",
          "name": "isApproved",
          "type": "bool"
        },
        {
          "indexed": false,
          "internalType": "uint256",
          "name": "oracleData",
          "type": "uint256"
        },
        {
          "indexed": false,
          "internalType": "uint8",
          "name": "juryAccept",
          "type": "uint8"
        },
        {
          "indexed": false,
          "internalType": "uint8",
          "name": "juryReject",
          "type": "uint8"
        },
        {
          "indexed": false,
          "internalType": "uint256",
          "name": "lastDecisionDate",
          "type": "uint256"
        },
        {
          "indexed": false,
          "internalType": "uint256",
          "name": "roundStartDate",
          "type": "uint256"
        },
        {
          "indexed": false,
          "internalType": "uint256",
          "name": "eventTimestamp",
          "type": "uint256"
        }
      ],
      "name": "HFClaimUpdated",
      "type": "event"
    },
    {
      "anonymous": false,
      "inputs": [
        {
          "indexed": true,
          "internalType": "address",
          "name": "user",
          "type": "address"
        },
        {
          "indexed": true,
          "internalType": "uint256",
          "name": "ticketId",
          "type": "uint256"
        },
        {
          "indexed": false,
          "internalType": "string",
          "name": "ticketName",
          "type": "string"
        },
        {
          "indexed": false,
          "internalType": "string",
          "name": "currency",
          "type": "string"
        },
        {
          "indexed": false,
          "internalType": "uint256",
          "name": "amount",
          "type": "uint256"
        },
        {
          "indexed": false,
          "internalType": "enum HFEnum.TicketStatus",
          "name": "ticketStatus",
          "type": "uint8"
        },
        {
          "indexed": false,
          "internalType": "uint256",
          "name": "eventTimestamp",
          "type": "uint256"
        }
      ],
      "name": "HFCoinBurned",
      "type": "event"
    },
    {
      "anonymous": false,
      "inputs": [
        {
          "indexed": true,
          "internalType": "address",
          "name": "user",
          "type": "address"
        },
        {
          "indexed": true,
          "internalType": "uint256",
          "name": "ticketId",
          "type": "uint256"
        },
        {
          "indexed": false,
          "internalType": "string",
          "name": "ticketName",
          "type": "string"
        },
        {
          "indexed": false,
          "internalType": "string",
          "name": "currency",
          "type": "string"
        },
        {
          "indexed": false,
          "internalType": "uint256",
          "name": "amount",
          "type": "uint256"
        },
        {
          "indexed": false,
          "internalType": "enum HFEnum.TicketStatus",
          "name": "ticketStatus",
          "type": "uint8"
        },
        {
          "indexed": false,
          "internalType": "uint256",
          "name": "eventTimestamp",
          "type": "uint256"
        }
      ],
      "name": "HFCoinMinted",
      "type": "event"
    },
    {
      "anonymous": false,
      "inputs": [
        {
          "indexed": true,
          "internalType": "address",
          "name": "sender",
          "type": "address"
        },
        {
          "indexed": true,
          "internalType": "address",
          "name": "receiver",
          "type": "address"
        },
        {
          "indexed": true,
          "internalType": "uint256",
          "name": "ticketId",
          "type": "uint256"
        },
        {
          "indexed": false,
          "internalType": "string",
          "name": "ticketName",
          "type": "string"
        },
        {
          "indexed": false,
          "internalType": "string",
          "name": "currency",
          "type": "string"
        },
        {
          "indexed": false,
          "internalType": "uint256",
          "name": "amount",
          "type": "uint256"
        },
        {
          "indexed": false,
          "internalType": "enum HFEnum.TicketStatus",
          "name": "ticketStatus",
          "type": "uint8"
        },
        {
          "indexed": false,
          "internalType": "uint256",
          "name": "eventTimestamp",
          "type": "uint256"
        }
      ],
      "name": "HFCoinTransferredFrom",
      "type": "event"
    },
    {
      "anonymous": false,
      "inputs": [
        {
          "indexed": true,
          "internalType": "address",
          "name": "investor",
          "type": "address"
        },
        {
          "indexed": true,
          "internalType": "uint256",
          "name": "ticketId",
          "type": "uint256"
        },
        {
          "indexed": false,
          "internalType": "int256",
          "name": "reimburseAmount",
          "type": "int256"
        },
        {
          "indexed": false,
          "internalType": "int256",
          "name": "totalInvestments",
          "type": "int256"
        },
        {
          "indexed": false,
          "internalType": "string",
          "name": "ticketName",
          "type": "string"
        },
        {
          "indexed": false,
          "internalType": "uint256",
          "name": "eventTimestamp",
          "type": "uint256"
        }
      ],
      "name": "InvestReimbursed",
      "type": "event"
    },
    {
      "anonymous": false,
      "inputs": [
        {
          "indexed": true,
          "internalType": "address",
          "name": "investor",
          "type": "address"
        },
        {
          "indexed": true,
          "internalType": "uint256",
          "name": "ticketId",
          "type": "uint256"
        },
        {
          "indexed": false,
          "internalType": "int256",
          "name": "investAmount",
          "type": "int256"
        },
        {
          "indexed": false,
          "internalType": "int256",
          "name": "claimAmount",
          "type": "int256"
        },
        {
          "indexed": false,
          "internalType": "int256",
          "name": "premiumAmount",
          "type": "int256"
        },
        {
          "indexed": false,
          "internalType": "int256",
          "name": "earning",
          "type": "int256"
        },
        {
          "indexed": false,
          "internalType": "string",
          "name": "ticketName",
          "type": "string"
        },
        {
          "indexed": false,
          "internalType": "enum HFEnum.TicketStatus",
          "name": "ticketStatus",
          "type": "uint8"
        },
        {
          "indexed": false,
          "internalType": "uint256",
          "name": "eventTimestamp",
          "type": "uint256"
        }
      ],
      "name": "InvestorEarned",
      "type": "event"
    },
    {
      "anonymous": false,
      "inputs": [
        {
          "indexed": true,
          "internalType": "address",
          "name": "buyer",
          "type": "address"
        },
        {
          "indexed": true,
          "internalType": "uint256",
          "name": "ticketId",
          "type": "uint256"
        },
        {
          "indexed": false,
          "internalType": "int256",
          "name": "totalInvestments",
          "type": "int256"
        },
        {
          "indexed": false,
          "internalType": "string",
          "name": "ticketName",
          "type": "string"
        },
        {
          "indexed": false,
          "internalType": "uint256",
          "name": "eventTimestamp",
          "type": "uint256"
        }
      ],
      "name": "InvestsClaimed",
      "type": "event"
    },
    {
      "anonymous": false,
      "inputs": [
        {
          "indexed": true,
          "internalType": "uint256",
          "name": "ticketId",
          "type": "uint256"
        },
        {
          "indexed": true,
          "internalType": "uint256",
          "name": "tokenId",
          "type": "uint256"
        },
        {
          "indexed": false,
          "internalType": "uint256",
          "name": "eventTimestamp",
          "type": "uint256"
        }
      ],
      "name": "NFTAdded",
      "type": "event"
    },
    {
      "anonymous": false,
      "inputs": [
        {
          "indexed": true,
          "internalType": "uint256",
          "name": "tokenId",
          "type": "uint256"
        },
        {
          "indexed": false,
          "internalType": "uint256",
          "name": "eventTimestamp",
          "type": "uint256"
        }
      ],
      "name": "NFTBurned",
      "type": "event"
    },
    {
      "anonymous": false,
      "inputs": [
        {
          "indexed": true,
          "internalType": "uint256",
          "name": "tokenId",
          "type": "uint256"
        },
        {
          "indexed": true,
          "internalType": "address",
          "name": "tokenContract",
          "type": "address"
        },
        {
          "indexed": false,
          "internalType": "enum HFEnum.NFTType",
          "name": "tokenType",
          "type": "uint8"
        },
        {
          "indexed": false,
          "internalType": "uint256",
          "name": "eventTimestamp",
          "type": "uint256"
        }
      ],
      "name": "NFTCreated",
      "type": "event"
    },
    {
      "anonymous": false,
      "inputs": [
        {
          "indexed": false,
          "internalType": "address",
          "name": "user",
          "type": "address"
        },
        {
          "indexed": false,
          "internalType": "uint256",
          "name": "tokenId",
          "type": "uint256"
        },
        {
          "indexed": false,
          "internalType": "string",
          "name": "nftURI",
          "type": "string"
        },
        {
          "indexed": false,
          "internalType": "uint256",
          "name": "eventTimestamp",
          "type": "uint256"
        }
      ],
      "name": "NFTMinted",
      "type": "event"
    },
    {
      "anonymous": false,
      "inputs": [
        {
          "indexed": true,
          "internalType": "address",
          "name": "from",
          "type": "address"
        },
        {
          "indexed": true,
          "internalType": "address",
          "name": "to",
          "type": "address"
        },
        {
          "indexed": true,
          "internalType": "uint256",
          "name": "tokenId",
          "type": "uint256"
        },
        {
          "indexed": false,
          "internalType": "uint256",
          "name": "eventTimestamp",
          "type": "uint256"
        }
      ],
      "name": "NFTTransferred",
      "type": "event"
    },
    {
      "anonymous": false,
      "inputs": [
        {
          "indexed": true,
          "internalType": "address",
          "name": "buyer",
          "type": "address"
        },
        {
          "indexed": true,
          "internalType": "uint256",
          "name": "ticketId",
          "type": "uint256"
        },
        {
          "indexed": false,
          "internalType": "int256",
          "name": "askingClaimAmount",
          "type": "int256"
        },
        {
          "indexed": false,
          "internalType": "int256",
          "name": "askingPremiumAmount",
          "type": "int256"
        },
        {
          "indexed": false,
          "internalType": "string",
          "name": "bidProcessType",
          "type": "string"
        },
        {
          "indexed": false,
          "internalType": "string",
          "name": "ticketName",
          "type": "string"
        },
        {
          "indexed": false,
          "internalType": "bool",
          "name": "reimbursedPremium",
          "type": "bool"
        },
        {
          "indexed": false,
          "internalType": "uint256",
          "name": "eventTimestamp",
          "type": "uint256"
        }
      ],
      "name": "PremiumCreated",
      "type": "event"
    },
    {
      "anonymous": false,
      "inputs": [
        {
          "indexed": true,
          "internalType": "address",
          "name": "buyer",
          "type": "address"
        },
        {
          "indexed": true,
          "internalType": "uint256",
          "name": "ticketId",
          "type": "uint256"
        },
        {
          "indexed": false,
          "internalType": "int256",
          "name": "reimburseAmount",
          "type": "int256"
        },
        {
          "indexed": false,
          "internalType": "int256",
          "name": "totalPremium",
          "type": "int256"
        },
        {
          "indexed": false,
          "internalType": "string",
          "name": "ticketName",
          "type": "string"
        },
        {
          "indexed": false,
          "internalType": "uint256",
          "name": "eventTimestamp",
          "type": "uint256"
        }
      ],
      "name": "PremiumReimbursed",
      "type": "event"
    },
    {
      "anonymous": false,
      "inputs": [
        {
          "indexed": true,
          "internalType": "address",
          "name": "user",
          "type": "address"
        },
        {
          "indexed": true,
          "internalType": "uint256",
          "name": "ticketId",
          "type": "uint256"
        },
        {
          "indexed": false,
          "internalType": "string",
          "name": "bidProcessType",
          "type": "string"
        },
        {
          "indexed": false,
          "internalType": "int256",
          "name": "claimAmount",
          "type": "int256"
        },
        {
          "indexed": false,
          "internalType": "int256",
          "name": "premiumAmount",
          "type": "int256"
        },
        {
          "indexed": false,
          "internalType": "int256",
          "name": "authorizedAmount",
          "type": "int256"
        },
        {
          "indexed": false,
          "internalType": "int64",
          "name": "marginRatio",
          "type": "int64"
        },
        {
          "indexed": false,
          "internalType": "string",
          "name": "ticketName",
          "type": "string"
        },
        {
          "indexed": false,
          "internalType": "enum HFEnum.TicketStatus",
          "name": "ticketStatus",
          "type": "uint8"
        },
        {
          "components": [
            {
              "internalType": "uint256",
              "name": "closingDate",
              "type": "uint256"
            },
            {
              "internalType": "uint256",
              "name": "startDate",
              "type": "uint256"
            },
            {
              "internalType": "uint256",
              "name": "endDate",
              "type": "uint256"
            }
          ],
          "indexed": false,
          "internalType": "struct HFEntity.TicketDate",
          "name": "dates",
          "type": "tuple"
        },
        {
          "indexed": false,
          "internalType": "uint256",
          "name": "eventTimestamp",
          "type": "uint256"
        }
      ],
      "name": "TicketCreated",
      "type": "event"
    },
    {
      "anonymous": false,
      "inputs": [
        {
          "indexed": true,
          "internalType": "address",
          "name": "user",
          "type": "address"
        },
        {
          "indexed": true,
          "internalType": "uint256",
          "name": "ticketId",
          "type": "uint256"
        },
        {
          "indexed": false,
          "internalType": "string",
          "name": "bidProcessType",
          "type": "string"
        },
        {
          "indexed": false,
          "internalType": "int256",
          "name": "claimAmount",
          "type": "int256"
        },
        {
          "indexed": false,
          "internalType": "int256",
          "name": "premiumAmount",
          "type": "int256"
        },
        {
          "indexed": false,
          "internalType": "int256",
          "name": "authorizedAmount",
          "type": "int256"
        },
        {
          "indexed": false,
          "internalType": "int64",
          "name": "marginRatio",
          "type": "int64"
        },
        {
          "indexed": false,
          "internalType": "string",
          "name": "ticketName",
          "type": "string"
        },
        {
          "indexed": false,
          "internalType": "enum HFEnum.TicketStatus",
          "name": "previousStatus",
          "type": "uint8"
        },
        {
          "indexed": false,
          "internalType": "enum HFEnum.TicketStatus",
          "name": "ticketStatus",
          "type": "uint8"
        },
        {
          "components": [
            {
              "internalType": "uint256",
              "name": "closingDate",
              "type": "uint256"
            },
            {
              "internalType": "uint256",
              "name": "startDate",
              "type": "uint256"
            },
            {
              "internalType": "uint256",
              "name": "endDate",
              "type": "uint256"
            }
          ],
          "indexed": false,
          "internalType": "struct HFEntity.TicketDate",
          "name": "dates",
          "type": "tuple"
        },
        {
          "components": [
            {
              "internalType": "uint256",
              "name": "ticketId",
              "type": "uint256"
            },
            {
              "internalType": "address",
              "name": "investorAddress",
              "type": "address"
            },
            {
              "internalType": "int256",
              "name": "askingAmount",
              "type": "int256"
            },
            {
              "internalType": "int256",
              "name": "earning",
              "type": "int256"
            },
            {
              "internalType": "string",
              "name": "bidProcessType",
              "type": "string"
            },
            {
              "internalType": "string",
              "name": "ticketName",
              "type": "string"
            },
            {
              "internalType": "bool",
              "name": "tookPremium",
              "type": "bool"
            },
            {
              "internalType": "bool",
              "name": "reimbursedInvest",
              "type": "bool"
            },
            {
              "internalType": "bool",
              "name": "removed",
              "type": "bool"
            },
            {
              "internalType": "int256",
              "name": "expiredInvestAmount",
              "type": "int256"
            },
            {
              "internalType": "uint256",
              "name": "askingExpireDate",
              "type": "uint256"
            },
            {
              "internalType": "uint256",
              "name": "investDate",
              "type": "uint256"
            }
          ],
          "indexed": false,
          "internalType": "struct HFEntity.Investment",
          "name": "selectedBidding",
          "type": "tuple"
        },
        {
          "indexed": false,
          "internalType": "uint256",
          "name": "eventTimestamp",
          "type": "uint256"
        }
      ],
      "name": "TicketStatusUpdate",
      "type": "event"
    },
    {
      "inputs": [
        {
          "internalType": "address",
          "name": "investor",
          "type": "address"
        },
        {
          "internalType": "uint256",
          "name": "ticketId",
          "type": "uint256"
        },
        {
          "internalType": "string",
          "name": "bidProcessType",
          "type": "string"
        },
        {
          "internalType": "int256",
          "name": "askingAmount",
          "type": "int256"
        },
        {
          "internalType": "uint256",
          "name": "askingExpireDate",
          "type": "uint256"
        },
        {
          "internalType": "string",
          "name": "ticketName",
          "type": "string"
        },
        {
          "internalType": "enum HFEnum.TicketStatus",
          "name": "ticketStatus",
          "type": "uint8"
        }
      ],
      "name": "EmitBiddingAdded",
      "outputs": [],
      "stateMutability": "nonpayable",
      "type": "function"
    },
    {
      "inputs": [
        {
          "internalType": "address",
          "name": "investor",
          "type": "address"
        },
        {
          "internalType": "uint256",
          "name": "ticketId",
          "type": "uint256"
        },
        {
          "internalType": "string",
          "name": "bidProcessType",
          "type": "string"
        }
      ],
      "name": "EmitBiddingRemoved",
      "outputs": [],
      "stateMutability": "nonpayable",
      "type": "function"
    },
    {
      "inputs": [
        {
          "internalType": "address",
          "name": "investor",
          "type": "address"
        },
        {
          "internalType": "uint256",
          "name": "ticketId",
          "type": "uint256"
        },
        {
          "internalType": "string",
          "name": "bidProcessType",
          "type": "string"
        },
        {
          "internalType": "int256",
          "name": "askingAmount",
          "type": "int256"
        },
        {
          "internalType": "int256",
          "name": "claimAmount",
          "type": "int256"
        },
        {
          "internalType": "int256",
          "name": "premiumAmount",
          "type": "int256"
        },
        {
          "internalType": "string",
          "name": "ticketName",
          "type": "string"
        },
        {
          "internalType": "enum HFEnum.TicketStatus",
          "name": "ticketStatus",
          "type": "uint8"
        }
      ],
      "name": "EmitBiddingSelected",
      "outputs": [],
      "stateMutability": "nonpayable",
      "type": "function"
    },
    {
      "inputs": [
        {
          "internalType": "address",
          "name": "investor",
          "type": "address"
        },
        {
          "internalType": "uint256",
          "name": "ticketId",
          "type": "uint256"
        },
        {
          "internalType": "string",
          "name": "bidProcessType",
          "type": "string"
        },
        {
          "internalType": "int256",
          "name": "askingAmount",
          "type": "int256"
        },
        {
          "internalType": "uint256",
          "name": "askingExpireDate",
          "type": "uint256"
        },
        {
          "internalType": "string",
          "name": "ticketName",
          "type": "string"
        },
        {
          "internalType": "enum HFEnum.TicketStatus",
          "name": "ticketStatus",
          "type": "uint8"
        }
      ],
      "name": "EmitBiddingUpdated",
      "outputs": [],
      "stateMutability": "nonpayable",
      "type": "function"
    },
    {
      "inputs": [
        {
          "internalType": "address",
          "name": "donor",
          "type": "address"
        },
        {
          "internalType": "uint256",
          "name": "ticketId",
          "type": "uint256"
        },
        {
          "components": [
            {
              "internalType": "uint256",
              "name": "ticketId",
              "type": "uint256"
            },
            {
              "internalType": "address",
              "name": "donorAddress",
              "type": "address"
            },
            {
              "internalType": "int256",
              "name": "amount",
              "type": "int256"
            },
            {
              "internalType": "string",
              "name": "option",
              "type": "string"
            },
            {
              "internalType": "bool",
              "name": "refunded",
              "type": "bool"
            }
          ],
          "internalType": "struct HFEntity.Donation",
          "name": "donate",
          "type": "tuple"
        }
      ],
      "name": "EmitDonationCreated",
      "outputs": [],
      "stateMutability": "nonpayable",
      "type": "function"
    },
    {
      "inputs": [
        {
          "internalType": "address",
          "name": "donor",
          "type": "address"
        },
        {
          "internalType": "uint256",
          "name": "ticketId",
          "type": "uint256"
        },
        {
          "internalType": "int256",
          "name": "amount",
          "type": "int256"
        },
        {
          "internalType": "string",
          "name": "option",
          "type": "string"
        },
        {
          "internalType": "bool",
          "name": "refunded",
          "type": "bool"
        }
      ],
      "name": "EmitDonationRefunded",
      "outputs": [],
      "stateMutability": "nonpayable",
      "type": "function"
    },
    {
      "inputs": [
        {
          "internalType": "address",
          "name": "donor",
          "type": "address"
        },
        {
          "internalType": "uint256",
          "name": "ticketId",
          "type": "uint256"
        },
        {
          "internalType": "int256",
          "name": "amount",
          "type": "int256"
        },
        {
          "internalType": "string",
          "name": "option",
          "type": "string"
        },
        {
          "internalType": "bool",
          "name": "refunded",
          "type": "bool"
        }
      ],
      "name": "EmitDonationUpdated",
      "outputs": [],
      "stateMutability": "nonpayable",
      "type": "function"
    },
    {
      "inputs": [
        {
          "internalType": "address",
          "name": "donee",
          "type": "address"
        },
        {
          "internalType": "uint256",
          "name": "ticketId",
          "type": "uint256"
        },
        {
          "internalType": "int256",
          "name": "sum",
          "type": "int256"
        }
      ],
      "name": "EmitDonationsReceived",
      "outputs": [],
      "stateMutability": "nonpayable",
      "type": "function"
    },
    {
      "inputs": [
        {
          "internalType": "address",
          "name": "user",
          "type": "address"
        },
        {
          "internalType": "uint256",
          "name": "ticketId",
          "type": "uint256"
        },
        {
          "components": [
            {
              "internalType": "uint256",
              "name": "claimId",
              "type": "uint256"
            },
            {
              "internalType": "uint8",
              "name": "round",
              "type": "uint8"
            },
            {
              "internalType": "enum HFEnum.ClaimStatus",
              "name": "claimStatus",
              "type": "uint8"
            },
            {
              "components": [
                {
                  "internalType": "string",
                  "name": "claimType",
                  "type": "string"
                },
                {
                  "internalType": "string[]",
                  "name": "constraints",
                  "type": "string[]"
                },
                {
                  "internalType": "string[]",
                  "name": "parameters",
                  "type": "string[]"
                }
              ],
              "internalType": "struct HFEntity.ClaimCondition",
              "name": "condition",
              "type": "tuple"
            },
            {
              "internalType": "bool",
              "name": "isApproved",
              "type": "bool"
            },
            {
              "internalType": "uint256",
              "name": "lastDecisionDate",
              "type": "uint256"
            },
            {
              "internalType": "uint256",
              "name": "oracleData",
              "type": "uint256"
            },
            {
              "internalType": "uint256",
              "name": "roundStartDate",
              "type": "uint256"
            }
          ],
          "internalType": "struct HFEntity.Claim",
          "name": "claim",
          "type": "tuple"
        },
        {
          "internalType": "uint256",
          "name": "oracleData",
          "type": "uint256"
        },
        {
          "internalType": "uint8",
          "name": "juryAccept",
          "type": "uint8"
        },
        {
          "internalType": "uint8",
          "name": "juryReject",
          "type": "uint8"
        }
      ],
      "name": "EmitHFClaimCreated",
      "outputs": [],
      "stateMutability": "nonpayable",
      "type": "function"
    },
    {
      "inputs": [
        {
          "internalType": "address",
          "name": "user",
          "type": "address"
        },
        {
          "internalType": "uint256",
          "name": "ticketId",
          "type": "uint256"
        },
        {
          "components": [
            {
              "internalType": "uint256",
              "name": "claimId",
              "type": "uint256"
            },
            {
              "internalType": "uint8",
              "name": "round",
              "type": "uint8"
            },
            {
              "internalType": "enum HFEnum.ClaimStatus",
              "name": "claimStatus",
              "type": "uint8"
            },
            {
              "components": [
                {
                  "internalType": "string",
                  "name": "claimType",
                  "type": "string"
                },
                {
                  "internalType": "string[]",
                  "name": "constraints",
                  "type": "string[]"
                },
                {
                  "internalType": "string[]",
                  "name": "parameters",
                  "type": "string[]"
                }
              ],
              "internalType": "struct HFEntity.ClaimCondition",
              "name": "condition",
              "type": "tuple"
            },
            {
              "internalType": "bool",
              "name": "isApproved",
              "type": "bool"
            },
            {
              "internalType": "uint256",
              "name": "lastDecisionDate",
              "type": "uint256"
            },
            {
              "internalType": "uint256",
              "name": "oracleData",
              "type": "uint256"
            },
            {
              "internalType": "uint256",
              "name": "roundStartDate",
              "type": "uint256"
            }
          ],
          "internalType": "struct HFEntity.Claim",
          "name": "claim",
          "type": "tuple"
        },
        {
          "internalType": "uint256",
          "name": "oracleData",
          "type": "uint256"
        },
        {
          "internalType": "uint8",
          "name": "juryAccept",
          "type": "uint8"
        },
        {
          "internalType": "uint8",
          "name": "juryReject",
          "type": "uint8"
        }
      ],
      "name": "EmitHFClaimUpdated",
      "outputs": [],
      "stateMutability": "nonpayable",
      "type": "function"
    },
    {
      "inputs": [
        {
          "internalType": "address",
          "name": "user",
          "type": "address"
        },
        {
          "internalType": "uint256",
          "name": "ticketId",
          "type": "uint256"
        },
        {
          "internalType": "string",
          "name": "ticketName",
          "type": "string"
        },
        {
          "internalType": "string",
          "name": "currency",
          "type": "string"
        },
        {
          "internalType": "uint256",
          "name": "amount",
          "type": "uint256"
        },
        {
          "internalType": "enum HFEnum.TicketStatus",
          "name": "ticketStatus",
          "type": "uint8"
        }
      ],
      "name": "EmitHFCoinBurned",
      "outputs": [],
      "stateMutability": "nonpayable",
      "type": "function"
    },
    {
      "inputs": [
        {
          "internalType": "address",
          "name": "user",
          "type": "address"
        },
        {
          "internalType": "uint256",
          "name": "ticketId",
          "type": "uint256"
        },
        {
          "internalType": "string",
          "name": "ticketName",
          "type": "string"
        },
        {
          "internalType": "string",
          "name": "currency",
          "type": "string"
        },
        {
          "internalType": "uint256",
          "name": "amount",
          "type": "uint256"
        },
        {
          "internalType": "enum HFEnum.TicketStatus",
          "name": "ticketStatus",
          "type": "uint8"
        }
      ],
      "name": "EmitHFCoinMinted",
      "outputs": [],
      "stateMutability": "nonpayable",
      "type": "function"
    },
    {
      "inputs": [
        {
          "internalType": "address",
          "name": "sender",
          "type": "address"
        },
        {
          "internalType": "address",
          "name": "recipient",
          "type": "address"
        },
        {
          "internalType": "uint256",
          "name": "ticketId",
          "type": "uint256"
        },
        {
          "internalType": "string",
          "name": "ticketName",
          "type": "string"
        },
        {
          "internalType": "string",
          "name": "currency",
          "type": "string"
        },
        {
          "internalType": "uint256",
          "name": "amount",
          "type": "uint256"
        },
        {
          "internalType": "enum HFEnum.TicketStatus",
          "name": "ticketStatus",
          "type": "uint8"
        }
      ],
      "name": "EmitHFCoinTransferredFrom",
      "outputs": [],
      "stateMutability": "nonpayable",
      "type": "function"
    },
    {
      "inputs": [
        {
          "internalType": "address",
          "name": "investor",
          "type": "address"
        },
        {
          "internalType": "uint256",
          "name": "ticketId",
          "type": "uint256"
        },
        {
          "internalType": "int256",
          "name": "reimburseAmount",
          "type": "int256"
        },
        {
          "internalType": "int256",
          "name": "totalInvestments",
          "type": "int256"
        },
        {
          "internalType": "string",
          "name": "ticketName",
          "type": "string"
        }
      ],
      "name": "EmitInvestReimbursed",
      "outputs": [],
      "stateMutability": "nonpayable",
      "type": "function"
    },
    {
      "inputs": [
        {
          "internalType": "address",
          "name": "investor",
          "type": "address"
        },
        {
          "internalType": "uint256",
          "name": "ticketId",
          "type": "uint256"
        },
        {
          "internalType": "int256",
          "name": "earning",
          "type": "int256"
        },
        {
          "components": [
            {
              "internalType": "uint256",
              "name": "ticketId",
              "type": "uint256"
            },
            {
              "internalType": "string",
              "name": "bidProcessType",
              "type": "string"
            },
            {
              "internalType": "int256",
              "name": "claimAmount",
              "type": "int256"
            },
            {
              "internalType": "int256",
              "name": "premiumAmount",
              "type": "int256"
            },
            {
              "internalType": "int256",
              "name": "authorizedAmount",
              "type": "int256"
            },
            {
              "internalType": "int256",
              "name": "donatedAmount",
              "type": "int256"
            },
            {
              "internalType": "int64",
              "name": "marginRatio",
              "type": "int64"
            },
            {
              "internalType": "string",
              "name": "ticketName",
              "type": "string"
            },
            {
              "internalType": "enum HFEnum.TicketStatus",
              "name": "ticketStatus",
              "type": "uint8"
            },
            {
              "components": [
                {
                  "internalType": "uint256",
                  "name": "closingDate",
                  "type": "uint256"
                },
                {
                  "internalType": "uint256",
                  "name": "startDate",
                  "type": "uint256"
                },
                {
                  "internalType": "uint256",
                  "name": "endDate",
                  "type": "uint256"
                }
              ],
              "internalType": "struct HFEntity.TicketDate",
              "name": "dates",
              "type": "tuple"
            },
            {
              "components": [
                {
                  "internalType": "uint256",
                  "name": "ticketId",
                  "type": "uint256"
                },
                {
                  "internalType": "address",
                  "name": "investorAddress",
                  "type": "address"
                },
                {
                  "internalType": "int256",
                  "name": "askingAmount",
                  "type": "int256"
                },
                {
                  "internalType": "int256",
                  "name": "earning",
                  "type": "int256"
                },
                {
                  "internalType": "string",
                  "name": "bidProcessType",
                  "type": "string"
                },
                {
                  "internalType": "string",
                  "name": "ticketName",
                  "type": "string"
                },
                {
                  "internalType": "bool",
                  "name": "tookPremium",
                  "type": "bool"
                },
                {
                  "internalType": "bool",
                  "name": "reimbursedInvest",
                  "type": "bool"
                },
                {
                  "internalType": "bool",
                  "name": "removed",
                  "type": "bool"
                },
                {
                  "internalType": "int256",
                  "name": "expiredInvestAmount",
                  "type": "int256"
                },
                {
                  "internalType": "uint256",
                  "name": "askingExpireDate",
                  "type": "uint256"
                },
                {
                  "internalType": "uint256",
                  "name": "investDate",
                  "type": "uint256"
                }
              ],
              "internalType": "struct HFEntity.Investment",
              "name": "selectedBidding",
              "type": "tuple"
            }
          ],
          "internalType": "struct HFEntity.Ticket",
          "name": "ticket",
          "type": "tuple"
        }
      ],
      "name": "EmitInvestorEarned",
      "outputs": [],
      "stateMutability": "nonpayable",
      "type": "function"
    },
    {
      "inputs": [
        {
          "internalType": "address",
          "name": "buyer",
          "type": "address"
        },
        {
          "internalType": "uint256",
          "name": "ticketId",
          "type": "uint256"
        },
        {
          "internalType": "int256",
          "name": "totalInvestments",
          "type": "int256"
        },
        {
          "internalType": "string",
          "name": "ticketName",
          "type": "string"
        }
      ],
      "name": "EmitInvestsClaimed",
      "outputs": [],
      "stateMutability": "nonpayable",
      "type": "function"
    },
    {
      "inputs": [
        {
          "internalType": "uint256",
          "name": "ticketId",
          "type": "uint256"
        },
        {
          "internalType": "uint256",
          "name": "tokenId",
          "type": "uint256"
        }
      ],
      "name": "EmitNFTAdded",
      "outputs": [],
      "stateMutability": "nonpayable",
      "type": "function"
    },
    {
      "inputs": [
        {
          "internalType": "uint256",
          "name": "tokenId",
          "type": "uint256"
        }
      ],
      "name": "EmitNFTBurned",
      "outputs": [],
      "stateMutability": "nonpayable",
      "type": "function"
    },
    {
      "inputs": [
        {
          "components": [
            {
              "internalType": "uint256",
              "name": "tokenId",
              "type": "uint256"
            },
            {
              "internalType": "address",
              "name": "tokenContract",
              "type": "address"
            },
            {
              "internalType": "enum HFEnum.NFTType",
              "name": "tokenType",
              "type": "uint8"
            }
          ],
          "internalType": "struct HFEntity.NFT",
          "name": "nft",
          "type": "tuple"
        }
      ],
      "name": "EmitNFTCreated",
      "outputs": [],
      "stateMutability": "nonpayable",
      "type": "function"
    },
    {
      "inputs": [
        {
          "internalType": "address",
          "name": "user",
          "type": "address"
        },
        {
          "internalType": "uint256",
          "name": "tokenId",
          "type": "uint256"
        },
        {
          "internalType": "string",
          "name": "nftURI",
          "type": "string"
        }
      ],
      "name": "EmitNFTMinted",
      "outputs": [],
      "stateMutability": "nonpayable",
      "type": "function"
    },
    {
      "inputs": [
        {
          "internalType": "address",
          "name": "from",
          "type": "address"
        },
        {
          "internalType": "address",
          "name": "to",
          "type": "address"
        },
        {
          "internalType": "uint256",
          "name": "tokenId",
          "type": "uint256"
        }
      ],
      "name": "EmitNFTTransferred",
      "outputs": [],
      "stateMutability": "nonpayable",
      "type": "function"
    },
    {
      "inputs": [
        {
          "internalType": "address",
          "name": "buyer",
          "type": "address"
        },
        {
          "internalType": "uint256",
          "name": "ticketId",
          "type": "uint256"
        },
        {
          "components": [
            {
              "internalType": "uint256",
              "name": "ticketId",
              "type": "uint256"
            },
            {
              "internalType": "address",
              "name": "buyerAddress",
              "type": "address"
            },
            {
              "internalType": "int256",
              "name": "askingClaimAmount",
              "type": "int256"
            },
            {
              "internalType": "int256",
              "name": "askingPremiumAmount",
              "type": "int256"
            },
            {
              "internalType": "string",
              "name": "bidProcessType",
              "type": "string"
            },
            {
              "internalType": "string",
              "name": "ticketName",
              "type": "string"
            },
            {
              "internalType": "bool",
              "name": "reimbursedPremium",
              "type": "bool"
            }
          ],
          "internalType": "struct HFEntity.Premium",
          "name": "premium",
          "type": "tuple"
        }
      ],
      "name": "EmitPremiumCreated",
      "outputs": [],
      "stateMutability": "nonpayable",
      "type": "function"
    },
    {
      "inputs": [
        {
          "internalType": "address",
          "name": "buyer",
          "type": "address"
        },
        {
          "internalType": "uint256",
          "name": "ticketId",
          "type": "uint256"
        },
        {
          "internalType": "int256",
          "name": "reimburseAmount",
          "type": "int256"
        },
        {
          "internalType": "int256",
          "name": "totalPremium",
          "type": "int256"
        },
        {
          "internalType": "string",
          "name": "ticketName",
          "type": "string"
        }
      ],
      "name": "EmitPremiumReimbursed",
      "outputs": [],
      "stateMutability": "nonpayable",
      "type": "function"
    },
    {
      "inputs": [
        {
          "internalType": "address",
          "name": "user",
          "type": "address"
        },
        {
          "internalType": "uint256",
          "name": "ticketId",
          "type": "uint256"
        },
        {
          "components": [
            {
              "internalType": "uint256",
              "name": "ticketId",
              "type": "uint256"
            },
            {
              "internalType": "string",
              "name": "bidProcessType",
              "type": "string"
            },
            {
              "internalType": "int256",
              "name": "claimAmount",
              "type": "int256"
            },
            {
              "internalType": "int256",
              "name": "premiumAmount",
              "type": "int256"
            },
            {
              "internalType": "int256",
              "name": "authorizedAmount",
              "type": "int256"
            },
            {
              "internalType": "int256",
              "name": "donatedAmount",
              "type": "int256"
            },
            {
              "internalType": "int64",
              "name": "marginRatio",
              "type": "int64"
            },
            {
              "internalType": "string",
              "name": "ticketName",
              "type": "string"
            },
            {
              "internalType": "enum HFEnum.TicketStatus",
              "name": "ticketStatus",
              "type": "uint8"
            },
            {
              "components": [
                {
                  "internalType": "uint256",
                  "name": "closingDate",
                  "type": "uint256"
                },
                {
                  "internalType": "uint256",
                  "name": "startDate",
                  "type": "uint256"
                },
                {
                  "internalType": "uint256",
                  "name": "endDate",
                  "type": "uint256"
                }
              ],
              "internalType": "struct HFEntity.TicketDate",
              "name": "dates",
              "type": "tuple"
            },
            {
              "components": [
                {
                  "internalType": "uint256",
                  "name": "ticketId",
                  "type": "uint256"
                },
                {
                  "internalType": "address",
                  "name": "investorAddress",
                  "type": "address"
                },
                {
                  "internalType": "int256",
                  "name": "askingAmount",
                  "type": "int256"
                },
                {
                  "internalType": "int256",
                  "name": "earning",
                  "type": "int256"
                },
                {
                  "internalType": "string",
                  "name": "bidProcessType",
                  "type": "string"
                },
                {
                  "internalType": "string",
                  "name": "ticketName",
                  "type": "string"
                },
                {
                  "internalType": "bool",
                  "name": "tookPremium",
                  "type": "bool"
                },
                {
                  "internalType": "bool",
                  "name": "reimbursedInvest",
                  "type": "bool"
                },
                {
                  "internalType": "bool",
                  "name": "removed",
                  "type": "bool"
                },
                {
                  "internalType": "int256",
                  "name": "expiredInvestAmount",
                  "type": "int256"
                },
                {
                  "internalType": "uint256",
                  "name": "askingExpireDate",
                  "type": "uint256"
                },
                {
                  "internalType": "uint256",
                  "name": "investDate",
                  "type": "uint256"
                }
              ],
              "internalType": "struct HFEntity.Investment",
              "name": "selectedBidding",
              "type": "tuple"
            }
          ],
          "internalType": "struct HFEntity.Ticket",
          "name": "ticket",
          "type": "tuple"
        }
      ],
      "name": "EmitTicketCreated",
      "outputs": [],
      "stateMutability": "nonpayable",
      "type": "function"
    },
    {
      "inputs": [
        {
          "internalType": "address",
          "name": "user",
          "type": "address"
        },
        {
          "internalType": "uint256",
          "name": "ticketId",
          "type": "uint256"
        },
        {
          "internalType": "enum HFEnum.TicketStatus",
          "name": "previousStatus",
          "type": "uint8"
        },
        {
          "components": [
            {
              "internalType": "uint256",
              "name": "ticketId",
              "type": "uint256"
            },
            {
              "internalType": "string",
              "name": "bidProcessType",
              "type": "string"
            },
            {
              "internalType": "int256",
              "name": "claimAmount",
              "type": "int256"
            },
            {
              "internalType": "int256",
              "name": "premiumAmount",
              "type": "int256"
            },
            {
              "internalType": "int256",
              "name": "authorizedAmount",
              "type": "int256"
            },
            {
              "internalType": "int256",
              "name": "donatedAmount",
              "type": "int256"
            },
            {
              "internalType": "int64",
              "name": "marginRatio",
              "type": "int64"
            },
            {
              "internalType": "string",
              "name": "ticketName",
              "type": "string"
            },
            {
              "internalType": "enum HFEnum.TicketStatus",
              "name": "ticketStatus",
              "type": "uint8"
            },
            {
              "components": [
                {
                  "internalType": "uint256",
                  "name": "closingDate",
                  "type": "uint256"
                },
                {
                  "internalType": "uint256",
                  "name": "startDate",
                  "type": "uint256"
                },
                {
                  "internalType": "uint256",
                  "name": "endDate",
                  "type": "uint256"
                }
              ],
              "internalType": "struct HFEntity.TicketDate",
              "name": "dates",
              "type": "tuple"
            },
            {
              "components": [
                {
                  "internalType": "uint256",
                  "name": "ticketId",
                  "type": "uint256"
                },
                {
                  "internalType": "address",
                  "name": "investorAddress",
                  "type": "address"
                },
                {
                  "internalType": "int256",
                  "name": "askingAmount",
                  "type": "int256"
                },
                {
                  "internalType": "int256",
                  "name": "earning",
                  "type": "int256"
                },
                {
                  "internalType": "string",
                  "name": "bidProcessType",
                  "type": "string"
                },
                {
                  "internalType": "string",
                  "name": "ticketName",
                  "type": "string"
                },
                {
                  "internalType": "bool",
                  "name": "tookPremium",
                  "type": "bool"
                },
                {
                  "internalType": "bool",
                  "name": "reimbursedInvest",
                  "type": "bool"
                },
                {
                  "internalType": "bool",
                  "name": "removed",
                  "type": "bool"
                },
                {
                  "internalType": "int256",
                  "name": "expiredInvestAmount",
                  "type": "int256"
                },
                {
                  "internalType": "uint256",
                  "name": "askingExpireDate",
                  "type": "uint256"
                },
                {
                  "internalType": "uint256",
                  "name": "investDate",
                  "type": "uint256"
                }
              ],
              "internalType": "struct HFEntity.Investment",
              "name": "selectedBidding",
              "type": "tuple"
            }
          ],
          "internalType": "struct HFEntity.Ticket",
          "name": "ticket",
          "type": "tuple"
        }
      ],
      "name": "EmitTicketStatusUpdate",
      "outputs": [],
      "stateMutability": "nonpayable",
      "type": "function"
    }
  ],
  "bytecode": "0x608060405234801561001057600080fd5b50612fda806100206000396000f3fe608060405234801561001057600080fd5b50600436106101735760003560e01c8063688b4e30116100de578063886812f211610097578063df333db311610071578063df333db3146103c4578063dfc90c4e146103e0578063f5be735e146103fc578063fd94260f1461041857610173565b8063886812f214610370578063b74ade551461038c578063df1c5ede146103a857610173565b8063688b4e30146102c85780637cdeb65d146102e45780637d6c0900146103005780637ddb7a471461031c5780637fa20ae51461033857806387b4c9001461035457610173565b8063335c7c2811610130578063335c7c28146102205780633468a1d21461023c5780634aface86146102585780634ef2236114610274578063515784b1146102905780635c4c2a81146102ac57610173565b8063037edc731461017857806306d61fc1146101945780630d349f90146101b05780630e891ed1146101cc5780631ecadc5a146101e85780631f0285fc14610204575b600080fd5b610192600480360381019061018d9190611e74565b610434565b005b6101ae60048036038101906101a9919061184b565b610476565b005b6101ca60048036038101906101c59190612106565b610506565b005b6101e660048036038101906101e19190611769565b610541565b005b61020260048036038101906101fd9190611a52565b6105be565b005b61021e600480360381019061021991906118ce565b610617565b005b61023a60048036038101906102359190611cc3565b61066d565b005b61025660048036038101906102519190611ee3565b6106d5565b005b610272600480360381019061026d91906119b8565b610755565b005b61028e6004803603810190610289919061206a565b6107b4565b005b6102aa60048036038101906102a59190611ffb565b61083a565b005b6102c660048036038101906102c19190611da5565b6108ac565b005b6102e260048036038101906102dd9190611921565b610911565b005b6102fe60048036038101906102f991906120d9565b61096d565b005b61031a60048036038101906103159190611cc3565b6109cd565b005b61033660048036038101906103319190611716565b610a35565b005b610352600480360381019061034d9190611921565b610aa0565b005b61036e60048036038101906103699190611b58565b610afc565b005b61038a60048036038101906103859190611bcc565b610b55565b005b6103a660048036038101906103a191906119b8565b610bc0565b005b6103c260048036038101906103bd9190611f8c565b610c1f565b005b6103de60048036038101906103d99190611ee3565b610c85565b005b6103fa60048036038101906103f59190611ad5565b610d0b565b005b61041660048036038101906104119190612133565b610d81565b005b610432600480360381019061042d9190611da5565b610dbe565b005b7f7f9dd5d8fa69e733db2277a568b65a9651a3042da18fb2b5ea1966d3891cbfda838383426040516104699493929190612509565b60405180910390a1505050565b828473ffffffffffffffffffffffffffffffffffffffff167f930fbd59be2569af121f3b0b5b7b40d7f1e2bc6aa017d73e56306f72b90202ba83602001518460400151856060015186608001518760c001518860e001518a8a61010001518b61012001518c6101400151426040516104f89b9a9998979695949392919061293b565b60405180910390a350505050565b807f401ca505317eed77a11d86cfdf8adc682b4c9cb9855ab9b951515e1b371c67ef426040516105369190612a96565b60405180910390a250565b868873ffffffffffffffffffffffffffffffffffffffff168a73ffffffffffffffffffffffffffffffffffffffff167fb0cb47fbde96282f252cd1033bcfc34dfe5693f5e938e8c22758db1df53f4fc8898989898989426040516105ab97969594939291906128a4565b60405180910390a4505050505050505050565b828473ffffffffffffffffffffffffffffffffffffffff167fd85f17436238e10687ecdc71611d6e90b995e3ec747b78722d5cf2dfee8a66c084844260405161060993929190612749565b60405180910390a350505050565b818373ffffffffffffffffffffffffffffffffffffffff167fd7f47e56e8d113100e718083b943e4c15624ce943d39c0d71ea77597613fc1fb8342604051610660929190612787565b60405180910390a3505050565b878973ffffffffffffffffffffffffffffffffffffffff167fa8042a843a1e94bdba66dc671bf26f10514bcabbccd056862090c265e6d4706b89898989898989426040516106c2989796959493929190612831565b60405180910390a3505050505050505050565b8360000151858773ffffffffffffffffffffffffffffffffffffffff167fa8e1b78ee177b18060b0eb61aab4c79103727b7919454826e2c98053469a28548760200151886040015189608001518989898d60a001518e60e001514260405161074599989796959493929190612b54565b60405180910390a4505050505050565b848673ffffffffffffffffffffffffffffffffffffffff167f7949a05ab70012f163aec147f3942be6ac2a96f8a51e7bfcbea04160fadc20ed86868686426040516107a49594939291906126af565b60405180910390a3505050505050565b818373ffffffffffffffffffffffffffffffffffffffff167fd566c601fffaa828aa9caeef6a2d2a3e7317a00417bc0924575eb77c705a6e2583602001518460400151856060015186608001518760c001518860e001518961010001518a61012001514260405161082d999897969594939291906129fb565b60405180910390a3505050565b818373ffffffffffffffffffffffffffffffffffffffff167fcf7c80460d70608941e20eb81617be187c4cedb1223b2e636fa05646c9dd84308360400151846060015185608001518660a001518760c001514260405161089f969594939291906125f4565b60405180910390a3505050565b868873ffffffffffffffffffffffffffffffffffffffff167f526bb5d9c6875481feefd459a01cc60943d011d70866982347781873e421d396888888888888426040516108ff97969594939291906128a4565b60405180910390a35050505050505050565b838573ffffffffffffffffffffffffffffffffffffffff167fe5eba93879ad6b5742566fd03724fee81658ee2d8ab5cf4277f324c66074389b8585854260405161095e9493929190612663565b60405180910390a35050505050565b806020015173ffffffffffffffffffffffffffffffffffffffff1681600001517f8d1d618ed82dfd11faece8179ea062b5d7ff53227b4c39f6c50170ceced2a98b8360400151426040516109c2929190612555565b60405180910390a350565b878973ffffffffffffffffffffffffffffffffffffffff167f5e0e5acaf19c04d6743d3a8839e21a049c4d8a4f94a34f80018e2edc7844cfeb8989898989898942604051610a22989796959493929190612831565b60405180910390a3505050505050505050565b808273ffffffffffffffffffffffffffffffffffffffff168473ffffffffffffffffffffffffffffffffffffffff167fe85924fec68775525e5b7f8646261563e26e6b838e6c46e8d053d0bc623b881542604051610a939190612a96565b60405180910390a4505050565b838573ffffffffffffffffffffffffffffffffffffffff167fc6e236b5427d0964869f6c0cfc3a08f8159713bbb5e0c53032ad9bb9661153e485858542604051610aed9493929190612663565b60405180910390a35050505050565b828473ffffffffffffffffffffffffffffffffffffffff167f9a732630f611086667eeb97d2a4f986d7f5922411784ffef730848ee90b7e07a848442604051610b4793929190612909565b60405180910390a350505050565b888a73ffffffffffffffffffffffffffffffffffffffff167fa0dc4454a8f1de280f6d54010f118203d554a1d84a75965ee937c4de388884d28a8a8a8a8a8a8a8a42604051610bac999897969594939291906127b0565b60405180910390a350505050505050505050565b848673ffffffffffffffffffffffffffffffffffffffff167fab39a0cb69a09391807742cbe2b6592168d2ccf6c99dc21229d4ec71a705409e8686868642604051610c0f9594939291906126af565b60405180910390a3505050505050565b818373ffffffffffffffffffffffffffffffffffffffff167f3a65061534289f5d95b5fae3994feb404bd1866f1be392a24c0940c231a7d86d83604001518460600151856080015142604051610c7894939291906126fd565b60405180910390a3505050565b8360000151858773ffffffffffffffffffffffffffffffffffffffff167f92eeaaae1a835f13ca29c165b41bb949d207a6df76ee13c660b5b3facb2371548760200151886040015189608001518989898d60a001518e60e001518f6060015142604051610cfb9a99989796959493929190612ab1565b60405180910390a4505050505050565b828473ffffffffffffffffffffffffffffffffffffffff167f82e115070f356ff74d9985aa876ce9bbd6850422ce51d7428d413b761ff4d0a1836080015184604001518560600151878760e0015188610100015142604051610d73979695949392919061257e565b60405180910390a350505050565b80827f7bc015cbfe648c791af981f771879c2c4fee9e172aff99f737fa751a8e2c4d4342604051610db29190612a96565b60405180910390a35050565b868873ffffffffffffffffffffffffffffffffffffffff167f61a7f1172c1dbcf4ed11f3651970a8e7bcb8b83ef570998d14f78fdff951b34388888888888842604051610e1197969594939291906128a4565b60405180910390a35050505050505050565b6000610e36610e3184612c06565b612be1565b90508083825260208201905082856020860282011115610e5957610e58612e89565b5b60005b85811015610ea757813567ffffffffffffffff811115610e7f57610e7e612e7a565b5b808601610e8c898261100a565b85526020850194506020840193505050600181019050610e5c565b5050509392505050565b6000610ec4610ebf84612c32565b612be1565b905082815260208101848484011115610ee057610edf612e8e565b5b610eeb848285612da4565b509392505050565b600081359050610f0281612eea565b92915050565b600082601f830112610f1d57610f1c612e7a565b5b8135610f2d848260208601610e23565b91505092915050565b600081359050610f4581612f01565b92915050565b600081359050610f5a81612f18565b92915050565b600081359050610f6f81612f28565b92915050565b600081359050610f8481612f38565b92915050565b600081359050610f9981612f48565b92915050565b600081359050610fae81612f5f565b92915050565b60008083601f840112610fca57610fc9612e7a565b5b8235905067ffffffffffffffff811115610fe757610fe6612e75565b5b60208301915083600182028301111561100357611002612e89565b5b9250929050565b600082601f83011261101f5761101e612e7a565b5b813561102f848260208601610eb1565b91505092915050565b60006060828403121561104e5761104d612e7f565b5b6110586060612be1565b9050600082013567ffffffffffffffff81111561107857611077612e84565b5b6110848482850161100a565b600083015250602082013567ffffffffffffffff8111156110a8576110a7612e84565b5b6110b484828501610f08565b602083015250604082013567ffffffffffffffff8111156110d8576110d7612e84565b5b6110e484828501610f08565b60408301525092915050565b6000610100828403121561110757611106612e7f565b5b611112610100612be1565b90506000611122848285016116ec565b600083015250602061113684828501611701565b602083015250604061114a84828501610f4b565b604083015250606082013567ffffffffffffffff81111561116e5761116d612e84565b5b61117a84828501611038565b606083015250608061118e84828501610f36565b60808301525060a06111a2848285016116ec565b60a08301525060c06111b6848285016116ec565b60c08301525060e06111ca848285016116ec565b60e08301525092915050565b600060a082840312156111ec576111eb612e7f565b5b6111f660a0612be1565b90506000611206848285016116ec565b600083015250602061121a84828501610ef3565b602083015250604061122e84828501610f8a565b604083015250606082013567ffffffffffffffff81111561125257611251612e84565b5b61125e8482850161100a565b606083015250608061127284828501610f36565b60808301525092915050565b6000610180828403121561129557611294612e7f565b5b6112a0610180612be1565b905060006112b0848285016116ec565b60008301525060206112c484828501610ef3565b60208301525060406112d884828501610f8a565b60408301525060606112ec84828501610f8a565b606083015250608082013567ffffffffffffffff8111156113105761130f612e84565b5b61131c8482850161100a565b60808301525060a082013567ffffffffffffffff8111156113405761133f612e84565b5b61134c8482850161100a565b60a08301525060c061136084828501610f36565b60c08301525060e061137484828501610f36565b60e08301525061010061138984828501610f36565b6101008301525061012061139f84828501610f8a565b610120830152506101406113b5848285016116ec565b610140830152506101606113cb848285016116ec565b6101608301525092915050565b6000606082840312156113ee576113ed612e7f565b5b6113f86060612be1565b90506000611408848285016116ec565b600083015250602061141c84828501610ef3565b602083015250604061143084828501610f60565b60408301525092915050565b600060e0828403121561145257611451612e7f565b5b61145c60e0612be1565b9050600061146c848285016116ec565b600083015250602061148084828501610ef3565b602083015250604061149484828501610f8a565b60408301525060606114a884828501610f8a565b606083015250608082013567ffffffffffffffff8111156114cc576114cb612e84565b5b6114d88482850161100a565b60808301525060a082013567ffffffffffffffff8111156114fc576114fb612e84565b5b6115088482850161100a565b60a08301525060c061151c84828501610f36565b60c08301525092915050565b60006060828403121561153e5761153d612e7f565b5b6115486060612be1565b90506000611558848285016116ec565b600083015250602061156c848285016116ec565b6020830152506040611580848285016116ec565b60408301525092915050565b60006101a082840312156115a3576115a2612e7f565b5b6115ae610160612be1565b905060006115be848285016116ec565b600083015250602082013567ffffffffffffffff8111156115e2576115e1612e84565b5b6115ee8482850161100a565b602083015250604061160284828501610f8a565b604083015250606061161684828501610f8a565b606083015250608061162a84828501610f8a565b60808301525060a061163e84828501610f8a565b60a08301525060c061165284828501610f9f565b60c08301525060e082013567ffffffffffffffff81111561167657611675612e84565b5b6116828482850161100a565b60e08301525061010061169784828501610f75565b610100830152506101206116ad84828501611528565b6101208301525061018082013567ffffffffffffffff8111156116d3576116d2612e84565b5b6116df8482850161127e565b6101408301525092915050565b6000813590506116fb81612f76565b92915050565b60008135905061171081612f8d565b92915050565b60008060006060848603121561172f5761172e612e98565b5b600061173d86828701610ef3565b935050602061174e86828701610ef3565b925050604061175f868287016116ec565b9150509250925092565b600080600080600080600080600060e08a8c03121561178b5761178a612e98565b5b60006117998c828d01610ef3565b99505060206117aa8c828d01610ef3565b98505060406117bb8c828d016116ec565b97505060608a013567ffffffffffffffff8111156117dc576117db612e93565b5b6117e88c828d01610fb4565b965096505060808a013567ffffffffffffffff81111561180b5761180a612e93565b5b6118178c828d01610fb4565b945094505060a061182a8c828d016116ec565b92505060c061183b8c828d01610f75565b9150509295985092959850929598565b6000806000806080858703121561186557611864612e98565b5b600061187387828801610ef3565b9450506020611884878288016116ec565b935050604061189587828801610f75565b925050606085013567ffffffffffffffff8111156118b6576118b5612e93565b5b6118c28782880161158c565b91505092959194509250565b6000806000606084860312156118e7576118e6612e98565b5b60006118f586828701610ef3565b9350506020611906868287016116ec565b925050604061191786828701610f8a565b9150509250925092565b600080600080600060a0868803121561193d5761193c612e98565b5b600061194b88828901610ef3565b955050602061195c888289016116ec565b945050604061196d88828901610f8a565b935050606061197e88828901610f8a565b925050608086013567ffffffffffffffff81111561199f5761199e612e93565b5b6119ab8882890161100a565b9150509295509295909350565b60008060008060008060a087890312156119d5576119d4612e98565b5b60006119e389828a01610ef3565b96505060206119f489828a016116ec565b9550506040611a0589828a01610f8a565b945050606087013567ffffffffffffffff811115611a2657611a25612e93565b5b611a3289828a01610fb4565b93509350506080611a4589828a01610f36565b9150509295509295509295565b60008060008060808587031215611a6c57611a6b612e98565b5b6000611a7a87828801610ef3565b9450506020611a8b878288016116ec565b9350506040611a9c87828801610f8a565b925050606085013567ffffffffffffffff811115611abd57611abc612e93565b5b611ac98782880161100a565b91505092959194509250565b60008060008060808587031215611aef57611aee612e98565b5b6000611afd87828801610ef3565b9450506020611b0e878288016116ec565b9350506040611b1f87828801610f8a565b925050606085013567ffffffffffffffff811115611b4057611b3f612e93565b5b611b4c8782880161158c565b91505092959194509250565b60008060008060608587031215611b7257611b71612e98565b5b6000611b8087828801610ef3565b9450506020611b91878288016116ec565b935050604085013567ffffffffffffffff811115611bb257611bb1612e93565b5b611bbe87828801610fb4565b925092505092959194509250565b6000806000806000806000806000806101008b8d031215611bf057611bef612e98565b5b6000611bfe8d828e01610ef3565b9a50506020611c0f8d828e016116ec565b99505060408b013567ffffffffffffffff811115611c3057611c2f612e93565b5b611c3c8d828e01610fb4565b98509850506060611c4f8d828e01610f8a565b9650506080611c608d828e01610f8a565b95505060a0611c718d828e01610f8a565b94505060c08b013567ffffffffffffffff811115611c9257611c91612e93565b5b611c9e8d828e01610fb4565b935093505060e0611cb18d828e01610f75565b9150509295989b9194979a5092959850565b600080600080600080600080600060e08a8c031215611ce557611ce4612e98565b5b6000611cf38c828d01610ef3565b9950506020611d048c828d016116ec565b98505060408a013567ffffffffffffffff811115611d2557611d24612e93565b5b611d318c828d01610fb4565b97509750506060611d448c828d01610f8a565b9550506080611d558c828d016116ec565b94505060a08a013567ffffffffffffffff811115611d7657611d75612e93565b5b611d828c828d01610fb4565b935093505060c0611d958c828d01610f75565b9150509295985092959850929598565b60008060008060008060008060c0898b031215611dc557611dc4612e98565b5b6000611dd38b828c01610ef3565b9850506020611de48b828c016116ec565b975050604089013567ffffffffffffffff811115611e0557611e04612e93565b5b611e118b828c01610fb4565b9650965050606089013567ffffffffffffffff811115611e3457611e33612e93565b5b611e408b828c01610fb4565b94509450506080611e538b828c016116ec565b92505060a0611e648b828c01610f75565b9150509295985092959890939650565b600080600060608486031215611e8d57611e8c612e98565b5b6000611e9b86828701610ef3565b9350506020611eac868287016116ec565b925050604084013567ffffffffffffffff811115611ecd57611ecc612e93565b5b611ed98682870161100a565b9150509250925092565b60008060008060008060c08789031215611f0057611eff612e98565b5b6000611f0e89828a01610ef3565b9650506020611f1f89828a016116ec565b955050604087013567ffffffffffffffff811115611f4057611f3f612e93565b5b611f4c89828a016110f0565b9450506060611f5d89828a016116ec565b9350506080611f6e89828a01611701565b92505060a0611f7f89828a01611701565b9150509295509295509295565b600080600060608486031215611fa557611fa4612e98565b5b6000611fb386828701610ef3565b9350506020611fc4868287016116ec565b925050604084013567ffffffffffffffff811115611fe557611fe4612e93565b5b611ff1868287016111d6565b9150509250925092565b60008060006060848603121561201457612013612e98565b5b600061202286828701610ef3565b9350506020612033868287016116ec565b925050604084013567ffffffffffffffff81111561205457612053612e93565b5b6120608682870161143c565b9150509250925092565b60008060006060848603121561208357612082612e98565b5b600061209186828701610ef3565b93505060206120a2868287016116ec565b925050604084013567ffffffffffffffff8111156120c3576120c2612e93565b5b6120cf8682870161158c565b9150509250925092565b6000606082840312156120ef576120ee612e98565b5b60006120fd848285016113d8565b91505092915050565b60006020828403121561211c5761211b612e98565b5b600061212a848285016116ec565b91505092915050565b6000806040838503121561214a57612149612e98565b5b6000612158858286016116ec565b9250506020612169858286016116ec565b9150509250929050565b600061217f83836122bf565b905092915050565b61219081612cc9565b82525050565b61219f81612cc9565b82525050565b60006121b082612c73565b6121ba8185612c96565b9350836020820285016121cc85612c63565b8060005b8581101561220857848403895281516121e98582612173565b94506121f483612c89565b925060208a019950506001810190506121d0565b50829750879550505050505092915050565b61222381612cdb565b82525050565b61223281612cdb565b82525050565b61224181612d6e565b82525050565b61225081612d80565b82525050565b61225f81612d92565b82525050565b61226e81612d20565b82525050565b61227d81612d20565b82525050565b61228c81612d2a565b82525050565b600061229e8385612cb8565b93506122ab838584612da4565b6122b483612e9d565b840190509392505050565b60006122ca82612c7e565b6122d48185612ca7565b93506122e4818560208601612db3565b6122ed81612e9d565b840191505092915050565b600061230382612c7e565b61230d8185612cb8565b935061231d818560208601612db3565b61232681612e9d565b840191505092915050565b6000606083016000830151848203600086015261234e82826122bf565b9150506020830151848203602086015261236882826121a5565b9150506040830151848203604086015261238282826121a5565b9150508091505092915050565b6000610180830160008301516123a860008601826124dc565b5060208301516123bb6020860182612187565b5060408301516123ce6040860182612265565b5060608301516123e16060860182612265565b50608083015184820360808601526123f982826122bf565b91505060a083015184820360a086015261241382826122bf565b91505060c083015161242860c086018261221a565b5060e083015161243b60e086018261221a565b5061010083015161245061010086018261221a565b50610120830151612465610120860182612265565b5061014083015161247a6101408601826124dc565b5061016083015161248f6101608601826124dc565b508091505092915050565b6060820160008201516124b060008501826124dc565b5060208201516124c360208501826124dc565b5060408201516124d660408501826124dc565b50505050565b6124e581612d57565b82525050565b6124f481612d57565b82525050565b61250381612d61565b82525050565b600060808201905061251e6000830187612196565b61252b60208301866124eb565b818103604083015261253d81856122f8565b905061254c60608301846124eb565b95945050505050565b600060408201905061256a6000830185612247565b61257760208301846124eb565b9392505050565b600060e082019050612593600083018a612274565b6125a06020830189612274565b6125ad6040830188612274565b6125ba6060830187612274565b81810360808301526125cc81866122f8565b90506125db60a0830185612256565b6125e860c08301846124eb565b98975050505050505050565b600060c0820190506126096000830189612274565b6126166020830188612274565b818103604083015261262881876122f8565b9050818103606083015261263c81866122f8565b905061264b6080830185612229565b61265860a08301846124eb565b979650505050505050565b60006080820190506126786000830187612274565b6126856020830186612274565b818103604083015261269781856122f8565b90506126a660608301846124eb565b95945050505050565b60006080820190506126c46000830188612274565b81810360208301526126d7818688612292565b90506126e66040830185612229565b6126f360608301846124eb565b9695505050505050565b60006080820190506127126000830187612274565b818103602083015261272481866122f8565b90506127336040830185612229565b61274060608301846124eb565b95945050505050565b600060608201905061275e6000830186612274565b818103602083015261277081856122f8565b905061277f60408301846124eb565b949350505050565b600060408201905061279c6000830185612274565b6127a960208301846124eb565b9392505050565b600060e08201905081810360008301526127cb818b8d612292565b90506127da602083018a612274565b6127e76040830189612274565b6127f46060830188612274565b8181036080830152612807818688612292565b905061281660a0830185612256565b61282360c08301846124eb565b9a9950505050505050505050565b600060c082019050818103600083015261284c818a8c612292565b905061285b6020830189612274565b61286860408301886124eb565b818103606083015261287b818688612292565b905061288a6080830185612256565b61289760a08301846124eb565b9998505050505050505050565b600060a08201905081810360008301526128bf81898b612292565b905081810360208301526128d4818789612292565b90506128e360408301866124eb565b6128f06060830185612256565b6128fd60808301846124eb565b98975050505050505050565b60006040820190508181036000830152612924818587612292565b905061293360208301846124eb565b949350505050565b60006101a0820190508181036000830152612956818e6122f8565b9050612965602083018d612274565b612972604083018c612274565b61297f606083018b612274565b61298c608083018a612283565b81810360a083015261299e81896122f8565b90506129ad60c0830188612256565b6129ba60e0830187612256565b6129c861010083018661249a565b8181036101608301526129db818561238f565b90506129eb6101808301846124eb565b9c9b505050505050505050505050565b6000610160820190508181036000830152612a16818c6122f8565b9050612a25602083018b612274565b612a32604083018a612274565b612a3f6060830189612274565b612a4c6080830188612283565b81810360a0830152612a5e81876122f8565b9050612a6d60c0830186612256565b612a7a60e083018561249a565b612a886101408301846124eb565b9a9950505050505050505050565b6000602082019050612aab60008301846124eb565b92915050565b600061014082019050612ac7600083018d6124fa565b612ad4602083018c612238565b612ae1604083018b612229565b612aee606083018a6124eb565b612afb60808301896124fa565b612b0860a08301886124fa565b612b1560c08301876124eb565b612b2260e08301866124eb565b818103610100830152612b358185612331565b9050612b456101208301846124eb565b9b9a5050505050505050505050565b600061012082019050612b6a600083018c6124fa565b612b77602083018b612238565b612b84604083018a612229565b612b9160608301896124eb565b612b9e60808301886124fa565b612bab60a08301876124fa565b612bb860c08301866124eb565b612bc560e08301856124eb565b612bd36101008301846124eb565b9a9950505050505050505050565b6000612beb612bfc565b9050612bf78282612de6565b919050565b6000604051905090565b600067ffffffffffffffff821115612c2157612c20612e46565b5b602082029050602081019050919050565b600067ffffffffffffffff821115612c4d57612c4c612e46565b5b612c5682612e9d565b9050602081019050919050565b6000819050602082019050919050565b600081519050919050565b600081519050919050565b6000602082019050919050565b600082825260208201905092915050565b600082825260208201905092915050565b600082825260208201905092915050565b6000612cd482612d37565b9050919050565b60008115159050919050565b6000819050612cf582612eae565b919050565b6000819050612d0882612ec2565b919050565b6000819050612d1b82612ed6565b919050565b6000819050919050565b60008160070b9050919050565b600073ffffffffffffffffffffffffffffffffffffffff82169050919050565b6000819050919050565b600060ff82169050919050565b6000612d7982612ce7565b9050919050565b6000612d8b82612cfa565b9050919050565b6000612d9d82612d0d565b9050919050565b82818337600083830152505050565b60005b83811015612dd1578082015181840152602081019050612db6565b83811115612de0576000848401525b50505050565b612def82612e9d565b810181811067ffffffffffffffff82111715612e0e57612e0d612e46565b5b80604052505050565b7f4e487b7100000000000000000000000000000000000000000000000000000000600052602160045260246000fd5b7f4e487b7100000000000000000000000000000000000000000000000000000000600052604160045260246000fd5b600080fd5b600080fd5b600080fd5b600080fd5b600080fd5b600080fd5b600080fd5b600080fd5b6000601f19601f8301169050919050565b60058110612ebf57612ebe612e17565b5b50565b60048110612ed357612ed2612e17565b5b50565b60078110612ee757612ee6612e17565b5b50565b612ef381612cc9565b8114612efe57600080fd5b50565b612f0a81612cdb565b8114612f1557600080fd5b50565b60058110612f2557600080fd5b50565b60048110612f3557600080fd5b50565b60078110612f4557600080fd5b50565b612f5181612d20565b8114612f5c57600080fd5b50565b612f6881612d2a565b8114612f7357600080fd5b50565b612f7f81612d57565b8114612f8a57600080fd5b50565b612f9681612d61565b8114612fa157600080fd5b5056fea264697066735822122077b0503444a9a334fcd7c1b05a53cfe380fb8d84f28e38718c312b05aaf3568564736f6c63430008070033",
  "linkReferences": {},
  "deployedLinkReferences": {}
}